:020000040800F2
:10000000805500206D0200084F3F0008AD38000801
:100010004D3F00080F070008D756000800000000F9
:100020000000000000000000000000005F3F00082A
:10003000CD070008000000005D3F0008613F000898
:10004000870200088702000887020008870200086C
:100050008702000887020008CF070008870200080F
:1000600087020008D5070008DB07000887020008A0
:100070006D07000879070008870200088507000857
:10008000870200088702000887020008870200082C
:10009000110700081D07000887020008E107000893
:1000A000870200088702000887020008870200080C
:1000B0008702000887020008753F000887020008D1
:1000C00087020008870200088702000887020008EC
:1000D000870200086941000887020008754100088E
:1000E00087020008870200088702000887020008CC
:1000F00087020008870200088702000887020008BC
:100100008702000887020008813F00088702000874
:10011000870200088702000887020008870200089B
:1001200087020008910700089D070008A90700083A
:10013000870200088702000887020008870200087B
:10014000290700083507000887020008513F00080A
:10015000B5070008C10700088702000881410008B0
:10016000870200088702000887020008870200084B
:1001700087020008870200088702000800000000CC
:10018000870200088702000800F002F800F05EF81D
:100190000AA090E8000C82448344AAF10107DA45E2
:1001A00001D100F053F8AFF2090EBAE80F0013F0D6
:1001B000010F18BFFB1A43F001031847C49F00004A
:1001C000E49F00000A444FF0000C10F8013B13F0CC
:1001D000070408BF10F8014B1D1108BF10F8015BA0
:1001E000641E05D010F8016B641E01F8016BF9D193
:1001F00013F0080F1EBF10F8014BAD1C0C1B09D1EA
:100200006D1E58BF01F801CBFAD505E014F8016B5B
:1002100001F8016B6D1EF9D59142D6D370470000ED
:100220000023002400250026103A28BF78C1FBD8FF
:10023000520728BF30C148BF0B6070471FB509F097
:10024000D3FC00F06DF91FBD10B510BD00F0A7F98B
:100250001146FFF7F3FF08F075FE00F0C5F903B48F
:10026000FFF7F2FF03BC00F0D5F900000948804712
:1002700009480047FEE7FEE7FEE7FEE7FEE7FEE788
:10028000FEE7FEE7FEE7FEE704480549054A064BA0
:1002900070470000653F0008890100088037002092
:1002A00080550020804600208046002053EA020C42
:1002B00000F069802DE9F04B4FF00006002B1FBFC6
:1002C000B3FA83F503FA05F424FA05F65E4012BF8B
:1002D0001643B2FA82F502FA05F4C5F120051EBFF5
:1002E00022FA05FC44EA0C04203556EA044C4FEA95
:1002F000144418BF641C4FF000084FF000099042EE
:1003000071EB030C39D3002919BFB1FA81F701FA57
:1003100007F6B0FA80F700FA07F6C7F120071EBF0C
:1003200020FA07FC46EA0C062037B6FBF4FCA7EBE4
:100330000507103F07F01F0BCBF120060CFA0BFB53
:100340002CFA06F644BFB3460026202FA4BF5E4613
:100350004FF0000B5BEA060C08BF4FF0010B19EBE6
:100360000B09ABFB027C48EB0608C01B06FB02CC6A
:100370000BFB03CC71EB0C01C1E70B460246414677
:100380004846BDE8F08B13B54FF000004FF0000178
:10039000AFF30080BDE81C407047032A40F2308074
:1003A00010F0030C00F0158011F8013BBCF1020FB6
:1003B000624498BF11F801CB00F8013B38BF11F837
:1003C000013BA2F1040298BF00F801CB38BF00F84E
:1003D000013B11F0030300F02580083AC0F00880CB
:1003E00051F8043B083A51F804CBA0E80810F5E7AF
:1003F000121D5CBF51F8043B40F8043BAFF3008092
:10040000D20724BF11F8013B11F801CB48BF11F806
:10041000012B24BF00F8013B00F801CB48BF00F8D6
:10042000012B704710B5203AC0F00B80B1E818508E
:10043000203AA0E81850B1E81850A0E81850BFF4CE
:10044000F5AF5FEA027C24BFB1E81850A0E818506D
:1004500044BF18C918C0BDE810405FEA827C24BFC1
:1004600051F8043B40F8043B08BF7047D20728BF4F
:1004700031F8023B48BF11F8012B28BF20F8023B9E
:1004800048BF00F8012B70474FF000020429C0F06C
:10049000128010F0030C00F01B80CCF1040CBCF1B6
:1004A000020F18BF00F8012BA8BF20F8022BA1EB08
:1004B0000C0100F00DB85FEAC17C24BF00F8012BED
:1004C00000F8012B48BF00F8012B70474FF00002E5
:1004D00000B5134694469646203922BFA0E80C503A
:1004E000A0E80C50B1F12001BFF4F7AF090728BF15
:1004F000A0E80C5048BF0CC05DF804EB890028BF91
:1005000040F8042B08BF704748BF20F8022B11F0B9
:10051000804F18BF00F8012B704770477047704735
:1005200070B5064C7C44064D7D4403E020682044B1
:100530008047241DAC42F9D170BD0000789C0000BA
:100540009C9C000010B500F00DF8006810BD10B5BF
:10055000044600F007F8046010BD00000048704732
:100560002037002000487047203700201FB584B096
:1005700000200A9C06AB04AA02A90094AFF30080F5
:1005800018B1DDE9020108B010BD0348204000F0B9
:1005900039F800200146F6E70000207C70477546D8
:1005A000FFF7DCFFAE4605006946534620F0070022
:1005B000854618B020B5FFF767FEBDE820404FF034
:1005C00000064FF000074FF000084FF0000B21F03D
:1005D0000701AC46ACE8C009ACE8C009ACE8C0090A
:1005E000ACE8C0098D46704710B50446AFF30080F3
:1005F0002046BDE81040FFF732BE002801D000F0D1
:1006000009B8704710B500F025F8BDE81040FFF7B5
:10061000F4BF000001491820ABBEFEE7260002002F
:1006200070B505460C460A2000E06D1C00F068F825
:1006300035B128780028F8D102E0641C00F060F899
:1006400014B120780028F8D1BDE870400A2000F0ED
:1006500057B8000010B5022803D0410103D50DA101
:1006600012E0002010BD010101D50FA10CE0C10076
:1006700001D511A108E0810001D512A104E04000DC
:1006800001D513A100E0002115A0FFF7C9FF01204B
:1006900010BD0000496E76616C6964204F70657210
:1006A0006174696F6E000000446976696465204278
:1006B00079205A65726F00004F766572666C6F77AD
:1006C00000000000556E646572666C6F7700000074
:1006D000496E657861637420526573756C740000AF
:1006E0005349474650453A2041726974686D6574B4
:1006F000696320657863657074696F6E3A200000E5
:1007000008B569468DF800000320ABBE08BDFEE7C2
:10071000014800F0DCB9000044030020014800F06B
:10072000D6B9000044030020014800F0D0B9000011
:100730006C030020014800F0CAB900006C030020DF
:100740000A46094910B5D1F8BC12D1F8141209B102
:10075000012010BD0146044803F027FEBDE810400B
:10076000014803F08CBE00001C1C0020014800F072
:1007700097BC000054080020014800F091BC000024
:10078000E8030020014800F08BBC00004804002072
:10079000014800F085BC0000B4080020014800F0CA
:1007A0007FBC000000050020014800F079BC00007B
:1007B00060050020014800F073BC0000F407002031
:1007C000014800F06DBC00001409002070470120B2
:1007D00000F0ECBD082000F0E9BD102000F0E6BDFF
:1007E000202000F0E3BD72B6FEE790F82020012A39
:1007F00007D0022A05D0416A41F4802141620120DC
:100800007047006842690A43426100207047F0B5B2
:1008100090F820500468A468012D05D0022D03D063
:10082000416A41F4802153E014F0406F01D1E500AA
:100830004BD5C4F30164022C03D9416A41F4000191
:1008400046E00125A5401D608B684FF4C0759BB143
:10085000CE6833434E6843EAC603066805EB0417C7
:10086000F3514FF4C273076803EB04130E69FE5093
:10087000097D012905D009E00E88CB6843EA46537B
:10088000EBE70168CE5846F48076CE501179D2F865
:1008900005304FF4C67641EA0323016806EB0416DF
:1008A0008B511178D2F801204FF4C47341EA022130
:1008B000026803EB0413D150006805EB04114258A1
:1008C00042F0010242500020F0BD416A41F40011A3
:1008D00041620120F0BD000010B590F82020012AEF
:1008E00007D0022A05D0416A41F4802141620120EB
:1008F00010BD3B48D0F8002242F00102C0F80022AF
:10090000D0F8002222F47C52C0F80022D0F8002255
:100910004B6A42EA0322C0F800220A7D02F01F035C
:1009200001229A40D0F81C329343C0F81C32CB69A4
:10093000B3B9D0F80C329343C0F80C328C894B68B1
:1009400064F31F434C6900EBC404C4F840320C89C3
:100950000B6864F31F434C6900EBC404C4F84432D1
:10096000CB69012B16D1D0F80C321343C0F80C32EE
:100970000C884B6864F31F434C6900EBC404C4F853
:1009800040320C89CB6864F31F434C6900EBC4040C
:10099000C4F844328B69002BD0F804320ED01343D4
:1009A000C0F804320B69002BD0F8143208D013437E
:1009B000C0F81432096A012904D008E09343EFE734
:1009C0009343F5E7D0F81C121143C0F81C12D0F87D
:1009D000001221F00101C0F80012002010BD00003B
:1009E00000640040704730B590F82040012C05D0DD
:1009F000022C03D0416A41F480215DE004680029A3
:100A000055D02469A40754D04FF4D874056804EB7A
:100A100001142D5915F00405956005682D594ED027
:100A2000ED08556005682C5904F00204D4604FF4B9
:100A3000DA74056804EB01142D5905F00F051561F2
:100A400005682D59C5F30725956105682C59240CB7
:100A500054614FF4DC72046802EB0112A4581C705C
:100A60000468A458240A5C700468A458240C9C7080
:100A70000468A258120EDA704FF4DE72046802EBBA
:100A80000112A4581C710468A458240A5C710468FB
:100A9000A458240C9C710468A258120EDA710068E4
:100AA00081B1016941F020010161002030BDE4689D
:100AB000A8E7416A41F400114162012030BD6D0D8B
:100AC0001560AFE7C16841F02001C160EDE72DE995
:100AD000F05F0546006800244669D0F804908768F6
:100AE000D0F80CB0D0F810A0D0F81880F10748D09A
:100AF000F90714D001218160B80703D5284600F01A
:100B00006EFA0CE0780702D54FF4006407E038076E
:100B100002D54FF4805402E0284600F05FFAF80551
:100B200016D529684FF480708860B80503D528462B
:100B300000F057FA0CE0780502D544F4005407E0C1
:100B4000380502D544F4804402E0284600F048FA13
:100B5000F80316D529684FF480308860B80303D5B0
:100B6000284600F040FA0CE0780302D544F4004433
:100B700007E0380302D544F4803402E0284600F050
:100B800031FA300707D55FEACB6004D52968102019
:100B900044F40074C86070074FF0080707D55FEA97
:100BA0000B7004D52868C760284600F0A7F9B00785
:100BB00006D52868C068800702D0284600F0A0F952
:100BC000700607D55FEACA6004D52968102044F48E
:100BD00080640861B00607D55FEA0A7004D528680A
:100BE0000761284600F0ACF9F00606D528680069D0
:100BF000800702D0284600F0A5F9B00308D55FEAC7
:100C0000C96005D5296810204860284600F0BAF967
:100C1000F00307D55FEA097004D5286847602846C5
:100C200000F0E2F9300446D55FEA497040D5F0059E
:100C300004D55FEAC87001D044F00104B00504D5C2
:100C40005FEA887001D544F00204700504D55FEABC
:100C5000487001D544F00404300529D518F0700F10
:100C600026D008F07000402815D006DC102809D0E6
:100C700020280AD0302816D10AE050280ED060284B
:100C800011D10EE044F008040DE044F010040AE035
:100C900044F0200407E044F0400404E044F0800401
:100CA00001E044F480742868816921F07001816159
:100CB000296804204860002C05D0686A20436862D7
:100CC0002846FFF78FFEBDE8F09F70B5040003D003
:100CD00094F8200010B104E0012070BD204600F01F
:100CE00081F82068016841F00101016000F058FCC2
:100CF0000546052604E000F053FC401B0A2811D8E5
:100D000020684068C007F6D02068016821F0020121
:100D1000016000F045FC05460BE000F041FC401B83
:100D20000A2806D9606A40F40030606284F82060C6
:100D3000D2E7206840688007EFD4207E0128206831
:100D400001683DD021F080010160607E01282068AB
:100D5000016838D021F040010160A07E01282068A0
:100D6000016833D021F020010160E07E0128206875
:100D700001682ED041F010010160207F0128206819
:100D8000016829D021F008010160607F01282068F6
:100D9000016824D021F004010160D4E90201084374
:100DA000D4E90412114308436168491E08432168CD
:100DB000C86100206062012084F82000002070BD1E
:100DC00041F08001C0E741F04001C5E741F020015A
:100DD000CAE721F01001CFE741F00801D4E741F064
:100DE0000401D9E7F0B587B0044614216846FFF73F
:100DF0006DFB3D493D4ADFF8ECE00868D4F800C0DF
:100E00003A4B03240225092610320027401CF445E2
:100E100029D10860012807D1106840F000701060E7
:100E2000106800F000700590186840F00800186025
:100E300018688DE8B00000F00800CDE9046069464C
:100E400003942B4800F0BEFA00221146142000F053
:100E500055FD142000F044FD00221146152000F03D
:100E60004DFD152039E0DFF88CE0F44537D1D2F89C
:100E700000C04CF0806CC2F800C0D2F800C001285D
:100E80000CF0806CCDF814C0086007D1106840F0F9
:100E900000701060106800F000700590186840F055
:100EA000020018601868694600F002000590602092
:100EB0008DE8A100CDE903460F4800F083FA002237
:100EC0001146402000F01AFD402000F009FD0022EC
:100ED0001146412000F012FD412000F001FD07B055
:100EE000F0BD0000006400400400002030380240E3
:100EF000000C0240006800400004024070470000FF
:100F000010B50C4A0168914202D10B4B1C4605E01A
:100F10000A4A91420CD1084B2C331C46221D002159
:100F20002033FFF760FD201DA16ABDE8104008478F
:100F300010BD000000640040F00A0020006800407E
:100F40007047000010B50C4A0168914202D10B4B6A
:100F50001C4605E00A4A91420CD1084B2C331C4632
:100F6000221D01212033FFF73EFD201DA16ABDE8AF
:100F70001040084710BD000000640040F00A002047
:100F800000680040704770B5044690F820000128C2
:100F900004D0606A40F40020606217E0022084F808
:100FA00020002068016821F00101016000F0F8FADA
:100FB00005460DE000F0F4FA401B0A2808D9606AE3
:100FC00040F400306062052084F82000012070BDEC
:100FD00020684068C007EDD1606270BD70477047FF
:100FE000704770477047704770472DE9F0410446DD
:100FF000876D00F0D5FA054694F8350000260228E2
:1010000006D08020606584F834600120BDE8F0815E
:101010002068016821F0160101602068416921F013
:1010200080014161206C08B9A06C20B12068016882
:1010300021F0080101602068016821F001010160D0
:101040000CE000F0ADFA401B052807D920206065B0
:10105000032084F8350084F83460D7E720680068FE
:10106000C007EED194F85C103F208840B8600120A2
:1010700084F8350084F834600020C7E790F8351014
:10108000022903D08021416501207047052180F8A5
:1010900035100068016821F00101016000207047EF
:1010A0002DE9F84304464FF00009CDF8009063485D
:1010B0004FF41651A56D0068B0FBF1F72E6894F857
:1010C0005C20082101FA02F030420FD0206802684B
:1010D00052070BD5026822F00402026094F85C000B
:1010E0008140A960606D40F00100606594F85C107B
:1010F0004FF0010808FA01F0304208D02168496930
:10110000090604D5A860606D40F00200606594F89F
:101110005C1004208840304208D0216809688907A3
:1011200004D5A860606D40F00400606594F85C1020
:1011300010208840304218D021680968090714D56A
:10114000A86020680168490304D50068000308D539
:10115000A16C07E00168C90503D4016821F008010A
:101160000160216C09B12046884794F85C1020206A
:101170008840304231D021680968C9062DD5A86061
:1011800094F8350005282068016806D0490347D542
:10119000006800031DD4616C1CE021F016010160A1
:1011A0002068416921F080014161206C08B9A06C80
:1011B00020B12068016821F00801016094F85C10FA
:1011C0003F208840A86084F8358084F83490216DF1
:1011D0001FE0E16B09B120468847606D00282BD0E5
:1011E000606DC00714D0052084F8350020680168C0
:1011F00021F0010101600098401C0090B84203D822
:1012000020680068C007F6D184F8358084F83490EF
:10121000E16C002910D001B02046BDE8F04308473A
:101220000168C905D5D4016821F01001016084F876
:10123000358084F83490CCE7BDE8F88314000020B2
:101240002DE9F041044600F0ABF905465CB10220FF
:1012500084F83500002684F834602068016821F0A5
:10126000010101600DE00120BDE8F08100F098F976
:10127000401B052805D920206065032084F835002F
:10128000F2E720680068C007F0D121680A682048AA
:101290000240D4E901031843D4E903352B43184332
:1012A00063691843A3691843E3691843236A184321
:1012B0001043626A042A03D1D4E90B231A43104372
:1012C000086020684069656A20F0070128460D43E0
:1012D000012704280CD1A06A0543E06A40B12046EA
:1012E00006F070FE20B14020606584F83570BAE7E2
:1012F00020684561204606F08FFE94F85C203F216F
:1013000091408160666584F835700020ACE700008C
:101310003F8010F02DE9F0410446866D90F83400CE
:10132000002501280DD0012084F8340094F8357090
:101330000020012F07D084F8340002252846BDE89C
:10134000F0810220FBE7022784F8357060652046B3
:1013500006F024FE94F85C103F208840B0602068BE
:10136000016841F016010160206C20B1206801681D
:1013700041F0080101602068016841F0010101604D
:10138000DCE7000070B5044600F00AF90546601C71
:1013900002D004480078044400F002F9401BA04247
:1013A000FAD370BD0800002070470000044910B552
:1013B0000A68024202D00860FFF7F6FF10BD000085
:1013C000143C01402DE9F84FDFF89C91002209F10F
:1013D000040A0AF1040B03274FF00F0C0BF1040E63
:1013E00001250B6895402B40AB426ED10C7904F07F
:1013F0000304012C01D0022C15D18668540007FA91
:1014000004F826EA0806D1F80C8008FA04F848EA3D
:101410000608C0F808804468AC430D79C5F3001590
:101420009540254345600C79E443A40708D0C5687E
:10143000540007FA04F6B5438E68A6402E43C660F2
:101440000C7904F00304022C11D1D40800EB8406BB
:10145000356A5407E40E0CFA04F825EA0805D1F8B9
:10146000108008FA04F848EA0508C6F820800568E4
:10147000540007FA04F6B5430E7906F00306A640B9
:101480002E4306604C6814F4403F66D0374C256804
:1014900045F480452560246822F0030504F4804467
:1014A0000094334C05EB0408D8F808589407260F2D
:1014B0000CFA06F4A5432F4CA04201D1002424E0ED
:1014C0002D4CA04202D101241FE046E02B4CA0424B
:1014D00001D1022419E02A4CA04201D1032414E0D6
:1014E000284CA04201D104240FE0274CA04201D196
:1014F00005240AE0254CA04201D1062405E0244C35
:10150000A04201D1072400E00824B4402C43C8F8CD
:101510000848D9F800404D464E689C43F60300D574
:101520001C432C60DAF8004055464E689C43B603D5
:1015300000D51C432C60DBF800405D464E689C43A0
:10154000F60200D51C432C60DEF8004075464E685C
:101550009C43B60200D51C432C60521C102AFFF499
:101560003FAFBDE8F88F0000003C01404438024026
:101570000030014000000240000402400008024028
:10158000000C02400010024000140240001802400B
:10159000001C02400AB1816170470904FBE70000AA
:1015A00001488068704700000800002070B5040002
:1015B00025D094F83D00002520B984F83C50204601
:1015C00000F0B8F8242084F83D002068016821F07C
:1015D000010101602068016841F400410160206858
:1015E000016821F40041016000F0ECFE4D4B6168A0
:1015F000994201D84C4900E04C49884201D201206F
:1016000070BD4B492268B0FBF1F1566826F03F06E9
:101610000E43566062689A4206D94FF4967251435F
:101620004FF47A72B1FBF2F12268491C166A26F077
:101630003F06314311626168994210D84900401E4B
:10164000B0FBF1F2521CC2F30B02042A01D20420B7
:1016500022E0B0FBF1F0401CC0F30B001CE0A268DC
:10166000F2B301EBC10303EB0116431EB3FBF6F328
:101670005B1C43F480431B0549D092B301EBC102CC
:1016800002EB0111401EB0FBF1F0401CC0F30B0057
:1016900040F4804040F400402168CA694CF6FF7372
:1016A0009A431043C861D4E90710014320680268D7
:1016B00022F0C00211430160D4E903010143206814
:1016C000826848F2FF339A4311438160D4E90510E0
:1016D00001432068C26822F0FF021143C16001E0AB
:1016E0000EE016E02068016841F001010160256408
:1016F000202084F83D00256384F83E50002070BD12
:1017000001EB4106431EB3FBF6F35B1CB3E701207C
:10171000C2E701EB4101401EB0FBF1F0401CC0F3F9
:101720000B00B7E7A086010080841E0000093D0081
:1017300040420F002DE9F04387B00446142168466B
:10174000FEF7C4FE33492068884260D13248002544
:10175000016841F004010160016801F00401059194
:10176000016841F0010101600068122600F00100EB
:1017700005904FF4007001274FF003084FF0040963
:101780008DE8C10369462548FFF71CFE38028DE845
:10179000C10369462248FFF715FE1F481030016853
:1017A00041F40001016000681F4E00F40000059044
:1017B0001C4830604FF0C067C6E901754FF480687F
:1017C000C6E903587561B561F561356230467562E9
:1017D000FFF736FD08B1FFF706F8A663B463124EB3
:1017E000104860363030E6E802074020A6E82101C4
:1017F0000D4846F814596030B561F561356275627F
:10180000FFF71EFD08B1FEF7EEFF6663B46307B095
:10181000BDE8F083005C0040303802400008024020
:101820000000024040600240E80300200248816856
:101830000278114481607047080000200B4810B501
:10184000016841F400710160016841F48061016048
:10185000016841F480710160032000F06FF80F20EF
:1018600000F006F800F024F8002010BD003C024013
:1018700070B50D4D04464FF47A712878B1FBF0F045
:101880000A490968B1FBF0F001F084F848B9102C5E
:1018900007D200222146501E00F030F800206C6074
:1018A00070BD012070BD0000080000201400002061
:1018B0000A4808B5016841F480410160006800F4FD
:1018C000804000900548001F016841F08051016090
:1018D000006800F08050009008BD000044380240CD
:1018E000002809DB00F01F0201219140400980001F
:1018F00000F1E020C0F8001170470000F0B40E4B7A
:101900001B68C3F30223C3F10704042C00D9042489
:101910001D1D072D01D2002300E0DB1E012606FA63
:1019200004F56D1E0D409D409E40761E164045EA12
:101930000601F0BC06F0E4BE0CED00E0064A00F043
:10194000070110684FF6FF03184040EA01200349E1
:1019500008431060704700000CED00E00000FA053D
:1019600070470068416200207047F0B50368586A0C
:1019700039B19C6A4FF4827500EB144400204E1E6E
:101980000AE040EA024098620FE005EB8007DF5969
:10199000401C04EB1744C0B2B042F6D344EA024004
:1019A0004FF4807202EB810158500020F0BDD0F856
:1019B000040402F0B3BEC1EBC10200EB8202D0F816
:1019C0000404926C02F020BEC1EBC10200EB820263
:1019D000D0F80404D2F8082202F06ABED0F8040459
:1019E00002F09EBE70B504460B0601F00F00C0EB7E
:1019F000C00104EB81014FF001024FF0000503D557
:101A000081F83D203C3103E081F8FD5101F5FE7184
:101A1000087094F8BC03012808D084F8BC2320681F
:101A200003F0C0F984F8BC53002070BD022070BDE3
:101A300070B5044601F00F006268904201D90120A0
:101A400070BD0B0601F00F01C1EBC10104EB810178
:101A50004FF001024FF0000503D581F83D203C31E5
:101A600003E081F8FD5101F5FE718D70087094F866
:101A7000BC03012808D084F8BC23206803F08EFB47
:101A800084F8BC53002070BD022070BD01F00F012E
:101A9000C1EBC10100EB8100D0F8140270472DE9C1
:101AA000F04104460F0601F00F00C0EBC00104EB4B
:101AB00081014FF001064FF0000503D581F83D602C
:101AC0003C3103E081F8FD5101F5FE7108708A6038
:101AD000CB704A7802B1C880022B00D10D7194F806
:101AE000BC03012809D084F8BC63206803F0D2F855
:101AF000284684F8BC53BDE8F0810220FBE770B5AE
:101B00000D4601F00F04C4EBC40100EB8101C1F8E4
:101B10001032C1F808220023C1F8143281F8FD31D7
:101B200081F8FC41036901F5FE71012B00D10A61C6
:101B30002A07027C006803D003F088FB002070BDF8
:101B400003F074FAFAE770B504460D4601F00F0091
:101B50006168884201D9012070BD29064FF0000656
:101B60004FF0010207D5C0EBC00104EB810181F801
:101B70003D203C3107E0C5EBC50104EB810181F854
:101B8000FD6101F5FE718A70087094F8BC030128AC
:101B900007D084F8BC23206803F02CFB280702D070
:101BA00007E0022070BD217C04F57172206803F00B
:101BB000C9FA84F8BC63002070BD70B50D4601F011
:101BC0000F04C4EBC40100EB81010B658A640023A0
:101BD0004B65012381F83D3001F83C4F0369012B2F
:101BE00000D10A612A07027C006803D003F02EFBB3
:101BF000002070BD03F01AFAFAE700002DE9F84F53
:101C000005680446284603F050FC00287ED1206871
:101C100003F077FC002879D0206803F072FC80077D
:101C200004D52068416901F002014161206803F098
:101C300068FCC10604F57170009034D52068816994
:101C400021F0100181612F6A07F00F00C0EBC00086
:101C500004EB8006C7F3434006F5FE76022802D067
:101C6000062811D01AE047F6F070074216D0C7F3E5
:101C70000A1217462846F16803F047FCF06838441A
:101C8000F060B069384408E008222846009903F063
:101C90003CFCB069C7F30A110844B061206881694F
:101CA00041F010018161206803F02BFC00034FF02C
:101CB000010B5AD50026206803F002FC8046DFF8AD
:101CC00064A34FE05FEAC87049D0F1B2206803F026
:101CD00010FC0746C00707D005EB4611C1F808BB4A
:101CE0003146204606F0F8F9380722D505EB4611B3
:101CF0000820C1F8080B2068D0F8409000EB46108F
:101D0000D0F8081BD14507D9090400E087E103D5C5
:101D10004FF40041C0F8081B204600F073FAD1458B
:101D200007D92069012804D120680121009A03F015
:101D300009FAF80604D505EB46111020C1F8080B86
:101D4000B80604D505EB46112020C1F8080BB804ED
:101D500005D505EB46114FF40050C1F8080B4FEACA
:101D60005808761CB8F1000FACD1206803F0C9FB0D
:101D700040034FF000095BD5206803F09AFB8046D2
:101D8000002652E05FEAC8704CD0F1B2206803F040
:101D90009EFB0746C00723D006F00F010BFA01F0A7
:101DA000D5F834188143C5F8341805EB4610C0F84F
:101DB00008B9206901280FD1C6EBC60004EB8000EA
:101DC000D0E911211144816436B9206D20B9206811
:101DD0000121009A03F0B6F9F1B22046FFF7EBFDBE
:101DE000380704D505EB46110820C1F80809F806A4
:101DF00004D505EB46111020C1F80809780604D572
:101E000005EB46114020C1F80809B80704D505EBD9
:101E100046110220C1F80809380603D5314620468C
:101E200006F00EF94FEA5808761CB8F1000FA9D158
:101E3000206803F066FB002811DAD5F8040820F0CA
:101E40000100C5F8040894F8F403012829D02046BD
:101E500000F0BCF92068416901F00041416120684F
:101E600003F04FFB00050BD5D5F80808C00702D0DA
:101E7000204600F0EFF92068416901F400614161FA
:101E8000206803F03EFBC00468D5D5F8040820F0B4
:101E90000100C5F804081021206803F0E3FA0021CE
:101EA00027E084F8F49300212046FFF759FDD1E79D
:101EB00005EB41104FF67F32C0F80829D0F8003901
:101EC00023F40013C0F80039D0F8003943F0006360
:101ED000C0F80039C0F8082BD0F8002B22F400120B
:101EE000C0F8002BD0F8002B42F00062C0F8002BA5
:101EF000491C60688842DBD8D5F81C0840F0011006
:101F0000C5F81C08206B60B1D5F8840840F00B00C0
:101F1000C5F88408D5F8440840F00B00C5F844081B
:101F20000CE0D5F8140842F22B010843C5F8140858
:101F3000D5F8100840F00B00C5F81008D5F80008D7
:101F400020F4FE60C5F80008217C2068009A03F0A8
:101F5000F9F82068416901F480514161206803F07B
:101F6000D0FA800415D5206802F0D4FE206803F072
:101F70008FFAE06000F020FA0146227B206803F02F
:101F800023FB204600F00CF92068416901F4005160
:101F90004161206803F0B5FA000707D5204600F03C
:101FA00019F92068416901F008014161206803F0D6
:101FB000A8FAC00208D50021204600F035F82068B4
:101FC000416901F480114161206803F09AFA8002AE
:101FD00008D50021204600F02BF82068416901F463
:101FE00000114161206803F08CFA400007D52046BB
:101FF000FFF7DDFC2068416901F080414161206804
:1020000003F07FFA40070AD520684568680702D5C3
:102010002046FFF7E3FC2068416829434160BDE8A2
:10202000F88F00000A30544FD0F8040402F0C8BB07
:10203000D0F8040402F0D4BB2DE9F0418AB00400CA
:1020400005D094F8BD032668002520B108E00120E2
:102050000AB0BDE8F08184F8BC53204600F05EF879
:10206000032084F8BD03F06BC00500D4256120680F
:1020700002F0D6FF04F11001282288466846FEF7D8
:10208000D1F994E80F0002F053FE0227C8BB0021EB
:10209000206803F059FA002101260EE0C1EBC100CF
:1020A00004EB800080F83D6000F83C1FC180C570E3
:1020B0008560C560491CC9B2456160688842EDD839
:1020C000002111E0C1EBC10004EB800080F8FD515C
:1020D00080F8FC1180F8FF51C0F80452C0F8085293
:1020E000491CC9B2C0F8105260688842EAD8282258
:1020F00041466846FEF796F994E80F0002F0D6FED6
:1021000010B184F8BD73A2E784F8385084F8BD6339
:10211000206802F0BDFE00209AE7000010B586B0EE
:10212000044614216846FEF7D1F92068B0F1A04FAB
:102130002FD119480021026842F0010202600068B4
:1021400000F0010005904FF4C05000900220CDE94E
:102150000101032003900A20049069460F48FFF70D
:1021600031F90D48001D016841F0800101600A4805
:102170001430016841F4804101600068002200F4DD
:102180008040059011464320FFF7B8FB4320FFF73E
:10219000A7FB06B010BD000030380240000002402E
:1021A00070B50446C068012570B1022801D0FEF761
:1021B0001AFB2946D4F8040402F07EFBD4F8040488
:1021C000BDE8704002F031BB0025F2E7D0F804040E
:1021D00002F058BBD0F8040402F05EBB10B5044610
:1021E00090F8BC0301280BD0012084F8BC0384F8CC
:1021F0003810206803F0D6F9002084F8BC0310BD25
:10220000022010BDD0F8042400F57171104602F0D0
:102210005FBB10B50446006894F8BC13012906D0D2
:10222000012184F8BC13A16A012902D008E0022030
:1022300010BDA169012903D0816B41F48031816314
:10224000206803F0F5F8206802F014FE002084F8FE
:10225000BC0310BD10B50446D0F8040402F07AFBAC
:102260002068D0F8001E41F00101C0F8001E206A6D
:10227000002804D00248016841F00601016010BD49
:1022800010ED00E02DE9F0470D46040065D0DFF8C1
:102290001491D9F80000EFB200F00700A84207D26D
:1022A00089F80070D9F8000000F00700A84254D166
:1022B00020683D4E810712D5400703D5306840F4B1
:1022C000E05030602078000703D5306840F460406B
:1022D00030603068A16820F0F0000843306020785A
:1022E000C0072DD0304960680839012812D0022873
:1022F00013D0032811D00968890700292DDA316825
:1023000021F0030101433160FFF74AF9804641F2B1
:10231000883A0EE009688903EFE709688901ECE76C
:10232000FFF73EF9A0EB0801514502D90320BDE8B3
:10233000F0873068616800F00C00B0EB810FEFD1DE
:10234000D9F80010484601F00701A94207D90770E3
:10235000006800F00700A84201D00120E7E72078DC
:10236000400705D53068E16820F4E050084330604C
:102370002078000706D53068216920F4604040EAE3
:10238000C100306000F03EF83168084AC1F3031123
:10239000515CC8400649086006480068FFF768FAC3
:1023A0000020C4E7003C024008380240669E000856
:1023B000140000200C000020014800687047000055
:1023C000140000200448054900680968044AC1F364
:1023D0008221515CC8407047140000200838024038
:1023E000769E00080448054900680968044AC1F35C
:1023F0004231515CC8407047140000200838024048
:10240000769E0008154810B5006810F00C011448BD
:1024100013D0144B04290FD008290ED10F4C241FC0
:10242000216801F03F022168490207D52068C0F306
:102430008810A0FB030106E0184610BD2168C1F317
:102440008811A1FB00010023FDF730FF2168C1F3D3
:102450000141491C4900B0FBF1F010BD08380240B1
:102460000024F400001BB7002DE9F84F040075D0DC
:102470002078DFF838A3C007AAF1040548D00AF194
:1024800004000168C1F38101012908D00068C0F38C
:10249000810002280AD1DAF80000400206D5286837
:1024A000800335D560680028E1D031E06068B0F580
:1024B000803F10D0B0F5A02F286810D020F48030D5
:1024C0002860286820F4802028606068A0B1FFF7A9
:1024D00067F806460CE0286840F48030F4E740F4E2
:1024E00080202860F7E7FFF75BF8801B642871D82D
:1024F00028688003F7D50BE0FFF752F8064604E0A2
:10250000FFF74EF8801B6428F1D828688003F7D4C1
:102510002078DFF89C9280074FF0000B3DD5A34850
:10252000001D016811F00C0F08D00068C0F3810095
:1025300002280AD1DAF80000400206D42868800791
:1025400015D5E068012809D111E0E068B8B1012093
:10255000C9F80000FFF724F8064605E022E1FFF77E
:102560001FF8801B0228C2D828688007F7D5286882
:10257000216920F0F80040EAC10028600DE0C9F8A8
:1025800000B0FFF70DF8064604E0FFF709F8801BDE
:1025900002281FD828688007F7D42078000722D5A2
:1025A000824F84486169703771B101210160FEF783
:1025B000F7FF064604E0FEF7F3FF801B022809D868
:1025C00038688007F7D50EE0C0F800B0FEF7E8FFE6
:1025D000064605E082E0FEF7E3FF801B02287DD877
:1025E00038688007F7D42078400765D56F484FF0EA
:1025F00000083C300068C0000BD46C483C300168D7
:1026000041F08051016000684FF0010800F08050F7
:102610000090694F3868C0050FD4386840F4807066
:102620003860FEF7BDFF064604E0FEF7B9FF801BE9
:10263000022853D83868C005F7D55C4FA0686C37BE
:1026400001280FD00528386810D020F0010038602C
:10265000386820F004003860A068B0B1FEF7A0FF31
:1026600006460EE0386840F00100F4E740F0040050
:102670003860F7E7FEF794FF811B41F28830814212
:1026800063D838688007F5D50DE0FEF789FF064668
:1026900006E0FEF785FF811B41F28830814254D865
:1026A00038688007F5D4B8F1000F05D03F483C30BA
:1026B000016821F080510160A069B8B33B49091D50
:1026C0000968C1F38101022946D00228584606D084
:1026D000C9F86000FEF764FF044639E035E04F4674
:1026E000C9F86000FEF75CFF064604E0FEF758FFFD
:1026F000801B022829D828688001F7D4D4E9070173
:102700000843A16A2D4A490802EB0141626A41EA85
:102710008211084394F82C1040EA0161CAF80010B5
:1027200001203866FEF73CFF044605E03CE0FEF77A
:1027300037FF001B022808D828688001F7D533E04E
:10274000FEF72EFF001B022802D90320BDE8F88FF8
:1027500028688001F4D427E00128F7D0DAF80000D7
:10276000E26900F4800191421CD1226A00F03F012D
:10277000914217D147F6C071626A0140B1EB821FE6
:1027800010D1A26A4FF0FF3300F4403103EB520244
:10279000B1EB024F06D194F82C1000F07060B0EB52
:1027A000016F01D00120D1E70020CFE704380240BB
:1027B00000004742800E4742007000400000FFFFCB
:1027C00070B5040009D0606A002540B125616561DB
:1027D000A56294F8510040B10CE0012070BD606822
:1027E000B0F5827FF4D0E561F2E784F850502046DE
:1027F00000F044F8022084F851002068016821F0BC
:1028000040010160A088218900F4827001F4044134
:102810000843A18901F400610843217C01F0020111
:102820000843217D01F001010843218B01F400716F
:102830000843217F01F03801084394F8201001F08B
:1028400080010843218D01F400510843216808608C
:10285000A069042101EA104094F8241001F010014D
:102860000843216848602068C16921F40061C161A2
:102870006565012084F85100002070BD2DE9F04706
:1028800086B0044614216846FDF720FE3B492068C7
:1028900088426FD13A480025016841F480510160B7
:1028A000006800F48050059035481438016841F004
:1028B00002010160016801F002010591016841F027
:1028C000010101600068022700F001000590182056
:1028D0004FF001088DE8810103264FF00509CDE98D
:1028E000036969462748FEF76DFD80208DE8810168
:1028F000CDE9036969462448FEF764FD244F234867
:102900004FF0C0683860C7E901854FF48069C7E9B6
:1029100003597D614FF0040AC7F824A03004BD615B
:10292000C7E90750C7E90A6538463D63FEF788FCEA
:1029300008B1FDF758FFE764BC63154F13486037D3
:102940001830E7E802084020A7E82102C00247F853
:102950001459C7F824A0BD61C7E90750C7E90A6543
:102960000B483D636030FEF76BFC08B1FDF73BFFA1
:10297000A764BC6306B0BDE8F087000000300140EA
:10298000443802400004024000000240406402401B
:102990000005002010B5401EB0F1807F01D301205A
:1029A00010BD4FF0E02460610F21601705F0A8FE14
:1029B0000020A06107202061002010BD70477047F3
:1029C00010B590F83C20012A22D0012280F83C204A
:1029D000CA688C6822F4407222434C6822F48062F8
:1029E00022430C6822F4006222430C6922F48052D4
:1029F00022434C6922F400522243C969002322F485
:102A000080420A4301684A6480F83C30002010BDCF
:102A1000022010BD70B590F83C20012A32D001256B
:102A200080F83C50022280F83D2002685368946888
:102A300023F070060B6833435360134B02689A42CD
:102A400014D0B2F1804F11D0104B9A420ED0104BDF
:102A50009A420BD00F4B9A4208D00F4B9A4205D0A6
:102A60000E4B9A4202D00E4B9A4204D1496824F090
:102A700080031943916080F83D50002180F83C109C
:102A8000084670BD022070BD0000014000040040F7
:102A900000080040000C00400004014000400140DC
:102AA0000018004010B5040003D094F83D0010B1A8
:102AB00007E0012010BD002084F83C00204600F013
:102AC0001FF8022084F83D00211D206801F05EFA05
:102AD000012084F8460084F83E0084F83F0084F822
:102AE000400084F8410084F8420084F8430084F8F0
:102AF000440084F8450084F83D00002010BD00002B
:102B000008B500682549264A884207D1106840F078
:102B100001001060106800F001000BE02049214B1B
:102B2000091F984208D1086840F002000860086850
:102B300000F00200009008BD1B4B98420ED10868BF
:102B400040F0040008600868002200F004000090D3
:102B500001211E20FEF7D2FE1E2010E0134B9842EA
:102B600011D1086840F0080008600868002200F0F1
:102B70000800009001213220FEF7C0FE3220BDE89F
:102B80000840FEF7ADBE0A498842D4D1106840F42F
:102B900000301060106800F40030CBE70000014006
:102BA000443802400004004000080040000C00408F
:102BB0000044014090F83D10012901D001207047E8
:102BC000022180F83D100168CA6842F00102CA6023
:102BD00000681149884214D0B0F1804F11D00F49DC
:102BE00088420ED00E4988420BD00E49884208D048
:102BF0000D49884205D00D49884202D00C498842CF
:102C000004D1816801F00701062903D0016841F071
:102C100001010160002070470000014000040040F5
:102C200000080040000C004000040140004001404A
:102C30000018004070B5044690F83C0000250128BB
:102C400017D0012684F83C60022084F83D002068FB
:102C5000826822F0770222F47F428260086850285E
:102C600038D00DDC20284FD005DC90B3102811D1CE
:102C70004AE0022070BD302846D040280AD13BE00F
:102C800060282FD070280DD0B0F5805F03D0B0F54C
:102C9000005F12D0012584F83D60002084F83C00DC
:102CA000284670BDCB68D1E90121206801F0D2F936
:102CB0002068816841F0770109E0CB68D1E9012102
:102CC000206801F0C7F92068816841F48041816083
:102CD000E1E719E0CA684968206805F0F7FA502171
:102CE000206806E0CA684968206805F000FB60219A
:102CF000206805F0E3FACEE7CA684968206805F065
:102D0000E5FA40212068F4E7226801461046F0E722
:102D1000704770B50446006801694FF00005C9436B
:102D2000890715D4C168C943890711D4E91E016117
:102D300001202077206880698007204602D0FFF7B5
:102D4000E7FF04E000F0D8F8204600F06AF92577A4
:102D500020680169C943490717D4C168C9434907B5
:102D600013D46FF00401016102202077206880698C
:102D700010F4407F204602D0FFF7CAFF04E000F0C5
:102D8000BBF8204600F04DF9257720680169C9435A
:102D9000090716D4C168C943090712D46FF00801A6
:102DA0000161042020772068C0698007204602D096
:102DB000FFF7AEFF04E000F09FF8204600F031F985
:102DC000257720680169C943C90617D4C168C9437A
:102DD000C90613D46FF01001016108202077206824
:102DE000C06910F4407F204602D0FFF791FF04E055
:102DF00000F082F8204600F014F925772068016978
:102E0000C943C90708D1C168C943C90704D1891E8C
:102E10000161204600F006F920680169C9430906EE
:102E200009D4C168C943090605D46FF08001016166
:102E30002046FFF7C3FD20680169C943490609D44C
:102E4000C168C943490605D46FF0400101612046BD
:102E500000F05AF920680169C94389060BD4C1689A
:102E6000C943890607D46FF0200101612046BDE8FF
:102E70007040FFF7A4BD70BD30B587B00446142183
:102E80006846FDF723FB174D2068002416490222EF
:102E90000123A8420FD1086840F0100008600868BC
:102EA000694600F01000059010038DE81500CDE98B
:102EB00003430E4812E00E4CA04211D1086840F0C6
:102EC000200008600868694600F020000590402056
:102ED0008DE80D000320CDE903200648FEF772FAC5
:102EE00007B030BD00000140303802400010024001
:102EF0000044014000140240704770B5044690F849
:102F00003C0000260D4601280FD0012084F83C002B
:102F10006AB1042A1DD0082A2FD00C2A3FD00126DE
:102F2000002084F83C00304670BD022070BD20684F
:102F300005F038F92068816941F008018161206855
:102F4000816921F004018161206881692A69114346
:102F500011E0206801F088F82068816941F400617F
:102F600081612068816921F48061816120688169C3
:102F70002A6941EA02218161D2E7206805F042F91D
:102F80002068C16941F00801C1612068C16921F070
:102F90000401C1612068C1692A69114311E02068F8
:102FA00005F064F92068C16941F40061C1612068DD
:102FB000C16921F48061C1612068C1692A6941EA5F
:102FC0000221C161ACE710B5040003D094F83D00C4
:102FD00010B107E0012010BD002084F83C0020461D
:102FE00000F01EF8022084F83D00211D206800F04A
:102FF000CDFF012084F8460084F83E0084F83F00AD
:1030000084F8400084F8410084F8420084F84300CA
:1030100084F8440084F8450084F83D00002010BD89
:103020007047704700682A49884201D129484CE01E
:10303000B0F1804F05D02849884205D1254810308D
:1030400043E02448083040E02449884202D1214826
:1030500018303AE02249884202D11E48203034E03C
:103060002049884202D11B4828302EE01E49884260
:1030700002D11848303028E01C49884202D1154856
:10308000383022E01A49884202D1124840301CE010
:103090001849884202D10F48483016E01649884244
:1030A00002D10C48503010E01449884202D109483E
:1030B00058300AE01249884202D10648603004E0E4
:1030C0001049884203D10348683040680047704780
:1030D00000000140280100200004004000080040DA
:1030E000000C0040001000400014004000040140AB
:1030F00000400140004401400048014000180040E9
:10310000001C004000200040704738B5044690F88D
:103110003E00202826D171B16AB194F83C00012804
:1031200020D0012084F83C002063204600F0D2FF2C
:10313000010002D005E0012038BD206B012802D03B
:103140000121084638BD2068026840680090206868
:103150000C3050E8002F42F0100240E80023002B12
:10316000F5D1EEE7022038BD70B504460068244A68
:10317000904206D1234D2846A5F80811D5F80C2118
:1031800030E0214A904206D1204D2846A5F808118A
:10319000D5F80C2126E01E4A904206D11D4D284646
:1031A000A5F80811D5F80C211CE01B4A904206D165
:1031B0001A4D2846A5F80811D5F80C2112E0184A36
:1031C000904206D1174D2846A5F80811D5F80C21D4
:1031D00008E0154A904211D1144D2846A5F808116F
:1031E000D5F80C218430064605F5827590472A886B
:1031F00031462046BDE87040FFF787BF70BD000034
:1032000000100140480B002000440040580C0020F2
:1032100000480040680D0020004C0040780E00205F
:1032200000500040880F002000140140981000203A
:1032300070470000F8B5016804460868CA684B6921
:1032400010F00F0F4FF0000559D003F0010602F403
:103250009077374365D0C10705D0D10503D5216CE0
:1032600041F001012164410705D5D90703D0216C44
:1032700041F002012164810705D5D90703D0216CF3
:1032800041F004012164010707D502F02001314318
:1032900003D0216C41F008012164216C00293AD04F
:1032A000800604D5900602D5204605F0DDF820689A
:1032B0004069216CC0F38010090700D460B3204638
:1032C00005F044F920684069400621D52068143093
:1032D00050E8001F21F0400140E80012002AF5D11B
:1032E000A06BA8B16C490165A06BFDF7C7FE002873
:1032F00011D0A06B016D01B0BDE8F0400847830616
:103300000FD593060DD52046BDE8F84005F0ACB8C2
:103310002046FFF78DFFF8BD2046FFF789FF2564A3
:10332000F8BD266B2023012E79D1C60677D5D606A7
:1033300075D50868486800904869400640D5A16B7B
:10334000086840680004000CEAD0A28D8242E7D9E8
:10335000E085C869B0F5807F2DD020680C3050E83A
:10336000001F21F4807140E80012002AF5D1206886
:10337000143050E8001F21F0010140E80012002A3B
:10338000F5D12068143050E8001F21F0400140E8DA
:103390000012002AF5D184F83E30256320680C30F5
:1033A00050E8001F21F0100140E80012002AF5D17A
:1033B000A06BFDF71AFEA08DE18D401A81B229E0C5
:1033C000A08DE18D401A81B2E08D0028A8D000299F
:1033D000A6D020680C3050E8002F22F4907240E80C
:1033E0000026002EF5D12068143050E8002F22F07E
:1033F000010240E80026002EF5D184F83E30256316
:1034000020680C3050E8002F22F0100240E8002322
:10341000002BF5D12046FFF7A7FEF8BDFFE7050614
:103420002BD5150629D594F83D002128F5D1A068A3
:10343000B0F5805F01D12069B0B1206A411C2162E2
:10344000216800784860E08C401E0004000CE08495
:10345000E3D12068C16821F08001C1602068C168A3
:1034600041F04001C160D8E7206A0088C0F308003D
:103470004860206A801C2062E5E74006CDD55006F2
:10348000CBD5CA68204622F04002CA6084F83D309D
:1034900000F00AFAC1E700003986000870B50400A0
:1034A00004D094F83D00002510B106E0012070BD65
:1034B00084F83C50204600F023F8242084F83D0096
:1034C0002068C16821F40051C160204604F046FF25
:1034D0002068016921F4904101612068416921F06F
:1034E0002A0141612068C16841F40051C16025642E
:1034F000202084F83D0084F83E00002070BD0000CC
:103500002DE9F04F87B0044614216846FCF7DEFF32
:103510008A48DFF824821438D4F800C0874B02218F
:1035200003270722002506154FF0006B4FF0040912
:10353000C44558D1D3F800C04CF0100CC3F800C0FB
:103540001B6803F010030593036843F00203036054
:10355000036803F002030593036843F0010303606B
:1035600000688A4600F0010005908020CDE9000A3D
:103570000DF1080C90468CE8A00169467048FDF7F3
:1035800021FF7010CDE9000A0DF1080A69468AE8AA
:10359000A0016C48FDF716FFDFF8B0816A4940468C
:1035A000C8F80010C0E901B5C0E90356C8F81450C6
:1035B000C8F82490B101C8F81850C0E90751C8E90B
:1035C0000A75C8F83050FDF73BFE08B1FDF70BF95E
:1035D000C4F83880002211462520C8F83840FEF78C
:1035E0008DF9252049E0DFF86881C4454AD1534B65
:1035F0001B1FD3F800C04CF4802CC3F800C01B681C
:1036000003F480230593036843F004030360006818
:10361000049200F0040005904FF440608DE8A30090
:1036200069464C48FDF7CEFEDFF820814A4908F193
:1036300060084046C8F80010C0E901B5C0E903566B
:10364000C8F81450C8F824904FF40031C8F8185046
:10365000C0E90751C8E90A75C8F83050FDF7F0FD18
:1036600008B1FDF7C0F8C4F83880002211462720C1
:10367000C8F83840FEF742F92720FEF731F907B0C5
:10368000BDE8F08F354A9445F9D11A6842F020021E
:103690001A601A6802F020020592026842F04002A5
:1036A00002600068B84600F0400005904FF4844086
:1036B0008DE823010820049069462948FDF782FE21
:1036C000224F2148C037603838604FF0206AC7E980
:1036D00001A5C7E903567D61C7F824904FF4403037
:1036E000BD61C7E90750C7E90A8538463D63FDF764
:1036F000A7FD08B1FDF777F8A763BC631248194F1F
:103700001830E7E8020A402061C7800247F81459E0
:10371000BD61C7E9075013487D62FDF791FD08B10F
:10372000FDF761F86763002205214720BC63FEF7BF
:10373000E5F84720A1E700000010014044380240AE
:10374000000402400000024088640240F4070020A8
:103750000048004000080240286002400014014078
:103760000018024014090020704770472DE9F84303
:10377000044690F83D001F4615460E4620284BD1C2
:10378000C6B1BDB194F83C00012845D0012084F8B1
:103790003C004FF00008C4F84080212084F83D0030
:1037A000FDF7FEFEA5848146E584A068B0F5805F44
:1037B00003D004E00120BDE8F883206920B135463C
:1037C000002684F83C800EE00025FAE780212046A0
:1037D00004F05BFFA0B9ADB115F8010B216848609A
:1037E000E08C401EE084E08C4B464FF000020097D6
:1037F0000028EBD14FF04001204604F046FF30B1E5
:103800000320D8E736F8020BC0F30800E6E72020D3
:1038100084F83D000020CEE70220CCE7F7B504464F
:1038200090F83D00202837D1019991B38AB394F8DC
:103830003C00012830D0012084F83C002162A284A1
:10384000E28400252564212084F83D00636B134841
:10385000D863636B12481864636B1248D864606B5A
:10386000134605652668606B321DFDF753FD216820
:103870006FF04000086084F83C502068143050E835
:10388000001F41F0800140E80012002AF5D100201D
:10389000FEBDFFE70120FBE70220F9E749860008AB
:1038A000438500081383000870477047FEE7000057
:1038B000104810B50E4901600321416000214FF40A
:1038C000C0228160C0E903124FF4A0024261017678
:1038D000012242768276C17601774177FDF7F5F9CC
:1038E000002803D0BDE81040FCF77DBF10BD0000EC
:1038F0000064004044030020104810B50E490160E8
:103900000321416000214FF480228160C0E903124D
:103910004FF4E00242610176012242768276C1765E
:1039200001774177FDF7D1F9002803D0BDE81040B9
:10393000FCF759BF10BD0000006800406C03002078
:10394000294808B5016841F400110160016801F4DB
:1039500000110091016841F48001016000680022BB
:1039600000F48000009011460C20FDF7C7FF0C20EA
:10397000FDF7B6FF002211460D20FDF7BFFF0D2019
:10398000FDF7AEFF002211460F20FDF7B7FF0F2015
:10399000FDF7A6FF002205213920FDF7AFFF3920F2
:1039A000FDF79EFF002205213A20FDF7A7FF3A20F0
:1039B000FDF796FF002211463B20FDF79FFF3B20BD
:1039C000FDF78EFF002211464420FDF797FF4420AB
:1039D000FDF786FF002205214520FDF78FFFBDE89A
:1039E00008404520FDF77CBF303802402DE9F0410A
:1039F00086B014216846FCF769FD5248016841F021
:103A000002010160016801F002010591016841F0C5
:103A100040010160016801F040010591016841F039
:103A200001010160016801F001010591016841F0A7
:103A300008010160016801F008010591016841F089
:103A400004010160016801F004010591016841F081
:103A500080010160016801F080010591016841F079
:103A600020010160016801F020010591016841F029
:103A7000100101600068344D00F010000590012233
:103A800040212846FDF786FD304F0122102138469F
:103A9000FDF780FDDFF8B880012211464046FDF7B2
:103AA00079FD01244020CDE90004029469462846AE
:103AB0000394FDF787FC09204FF40416CDE90006B6
:103AC000694602942846FDF77DFC1020CDE90004EC
:103AD000022569463846CDE90245FDF773FC3020E2
:103AE000CDE90006694602941A48FDF76BFC009484
:103AF000694640460194CDE90245FDF763FC00228A
:103B000002210620FDF7FAFE0620FDF7E9FE00225D
:103B100001210920FDF7F2FE0920FDF7E1FE002258
:103B200001210A20FDF7EAFE0A20FDF7D9FE002256
:103B300001211720FDF7E2FE1720FDF7D1FE06B0A8
:103B4000BDE8F08130380240001802400000024019
:103B500000040240000802400D4810B50B49016006
:103B60000C49416000214FF480428160C0E903129A
:103B700041618161C1610162FDF718FD002803D038
:103B8000BDE81040FCF72FBE10BD0000005C0040F7
:103B900094030020801A0600104810B50E490160F9
:103BA0004FF482714160002102228160C0E903125A
:103BB00001224261520282613822C0E9072141623A
:103BC00081620A21C162FEF7FBFD002803D0BDE837
:103BD0001040FCF708BE10BD00300140A8040020D2
:103BE00010B588B01C216846FCF770FC14481349D6
:103BF0000024C0E9001441F28731C0E902410461A8
:103C00008461FEF74FFF08B1FCF7EDFD0C48FFF7AC
:103C1000DAF908B1FCF7E7FD6020CDE90004029471
:103C20000022694606480494FFF767F908B1FCF7DB
:103C3000DAFD0348FFF720F908B010BD0044014049
:103C4000E006002010B596B000240F941094119453
:103C5000129413941C2108A81494FCF737FC20211B
:103C60006846FCF733FC284826490160A721C0E9D3
:103C7000011441F28731C0E9031444618461FEF705
:103C800011FF08B1FCF7AFFD4FF480500F900FA962
:103C90001D48FEF7CFFF08B1FCF7A5FD1A48FFF756
:103CA00092F908B1FCF79FFD139413A916481494D8
:103CB000FEF7B0FE08B1FCF796FD6020CDE90804E0
:103CC0000A940B940C940D94082208A90E480E94A3
:103CD000FFF713F908B1FCF786FD00944FF400508C
:103CE000CDE9044002940194039469460648079480
:103CF000FEF766FE08B1FCF776FD0348FFF7BCF857
:103D000016B010BD00000140C005002010B586B0FF
:103D100000241748009401940294039404941349D6
:103D2000059401605321C0E9011440F2E731C0E974
:103D300003148461FEF7B6FE08B1FCF754FD4FF49E
:103D40008050009069460A48FEF774FF08B1FCF7FE
:103D50004AFD049404A906480594FEF75BFE00287A
:103D600001D0FCF740FD06B010BD0000000400408B
:103D70000806002010B586B000241748009401946E
:103D80000294039404941349059401605321C0E9FB
:103D9000011440F2E731C0E903148461FEF782FEAA
:103DA00008B1FCF720FD4FF48050009069460A48A6
:103DB000FEF740FF08B1FCF716FD049404A906487D
:103DC0000594FEF727FE002801D0FCF70CFD06B095
:103DD00010BD0000000800405006002010B586B05D
:103DE0000024174800940194029403940494134906
:103DF000059401605321C0E9011440F2E731C0E9A4
:103E000003148461FEF74EFE08B1FCF7ECFC4FF49E
:103E10008050009069460A48FEF70CFF08B1FCF795
:103E2000E2FC049404A906480594FEF7F3FD00287B
:103E300001D0FCF7D8FC06B010BD0000000C00401B
:103E4000980600200C4810B50A4901604FF4E13192
:103E50004160002181600C22C160C0E904128161CF
:103E6000C161FFF71BFB002803D0BDE81040FCF741
:103E7000BABC10BD00100140280700200E4810B544
:103E80000C4901600D4941604FF48051816000216F
:103E90004FF48062C0E903120422C0E90521C16128
:103EA000FFF7FCFA002803D0BDE81040FCF79BBCEC
:103EB00010BD0000004800406C070020A0860100F3
:103EC0000C4810B50A4901604FF4E131416000210E
:103ED00081600C22C160C0E904128161C161FFF7F9
:103EE000DDFA002803D0BDE81040FCF77CBC10BD13
:103EF00000140140B007002010B500220F491048FF
:103F000000F05DFB08B1FCF76EFC0E490C4800F0B8
:103F10004BFD08B1FCF767FC0B49094800F035FA86
:103F200008B1FCF760FC064800F05AFD002803D0F9
:103F3000BDE81040FCF757BC10BD0000BC010020DC
:103F40001C1C0020000300200C020020FEE7FEE7FE
:103F50000148FDF753BE000018330020704770473A
:103F6000FDF764BC0248016841F4700101607047CC
:103F700088ED00E00148FEF7CCBE000050060020AE
:103F80000148FEF7C6BE000098060020F0B50268A2
:103F9000254D264E264FDFF89CC0274B4FF0804E14
:103FA000A84209D0704507D0B04205D0B84203D02E
:103FB000604501D0984203D122F070044A68224340
:103FC000A8421BD0704519D0B04217D0B84215D0C6
:103FD000604513D0984211D0184CA0420ED0184C16
:103FE000A0420BD0174CA04208D0174CA04205D0DD
:103FF000164CA04202D0164CA04203D122F44074C9
:10400000CA6822434C6922F08002224302608A6817
:10401000C2620A688262A84201D0984201D109694D
:10402000016301214161F0BD000001400004004036
:1040300000080040000C0040000401400040014026
:10404000004401400048014000180040001C0040AE
:104050000020004010B5846842EA032224F47F4423
:104060000A432243826010BDF0B5026A22F01002BA
:104070000262026A436884690D6824F4E64444EAF3
:1040800005248D6822F0200242EA05120F4D104EE1
:10409000A84201D0B04206D1CF6822F0800242EAA5
:1040A000071222F04002A84201D0B04207D14D6968
:1040B00023F4406343EA85038D6943EA8503436043
:1040C0008461496881630262F0BD00000000014024
:1040D0000004014037B582B01346039A826283859B
:1040E000002504460564222084F83E00A16B1B488D
:1040F000C863A16B1A480864A16B1A48C864A06B16
:1041000005652168A06B091DFDF704F920680168A9
:104110004068009084F83C5020680C3050E8001F44
:1041200041F4807140E80012002AF5D12068143073
:1041300050E8001F41F0010140E80012002AF5D1CB
:104140002068143050E8001F41F0400140E80012A0
:10415000002AF5D105B0002030BD0000B785000869
:1041600029850008138300080148FFF763B80000A1
:10417000280700200148FFF75DB800006C07002009
:104180000148FFF757B80000B00700202DE9F041C3
:104190000C46D0F8C452D0F8BC12F9B104EB84023A
:1041A00000EB8202002693694BB1C4EBC40705EB18
:1041B00087056D6CB3FBF5F705FB173383B1C1F8C9
:1041C0001462D0F8C00203692BB1D1F8080222466C
:1041D00001F5047198470020BDE8F0810320FBE75A
:1041E000002396611A46214600F0BDFBF3E770B547
:1041F000D0F8BC4205466CB100F09EFAC4F80C023F
:10420000D5F8C012D4F80402CA6804F503719047C7
:10421000002070BD032070BD70B50446812100F000
:10422000EAF9002525870121204600F0E4F9A4F8E9
:1042300078518221204600F0DEF9A4F84C50A4F811
:104240004E50D4F8BC0248B1D4F8C00204F52F7423
:1042500040688047206800F018FD2560002070BD90
:1042600010B5D0F8BC4284B1D0F8C01259B194F85E
:104270000002FF2807D08B6894F801222146984756
:10428000FF2084F80002002010BD032010BD0000B4
:104290000A21018000487047280200204321018044
:1042A0000048704778020020432101800048704791
:1042B000340200204321018000487047BC020020E6
:1042C0002DE9F04704464FF4077000F0DFFC0500CD
:1042D0004FF0000735D0C4F8BC52207C4FF01008D6
:1042E0004FF40079012680B3402302228121204629
:1042F00000F086FA2687402302220121204600F0A2
:104300007FFAA4F87861A4F84E8008230322822162
:10431000204600F075FAA4F84C60D4F8C00200689A
:104320008047C5F81472C5F81872207CD5F80422AD
:10433000A8B140230121204600F06EFA0020BDE81C
:10434000F0870220C4F8BC72F9E7FFE74B4602226F
:104350008121204600F054FA26874B46CCE74B4695
:10436000E8E710B5D0F8BC1251B1027C002AD1F8B0
:10437000042207D04023012100F04EFA002010BD96
:10438000032010BD4FF40073F5E719B1C0F8C01257
:104390000020704703207047D0F8BC0218B1C0F865
:1043A00004120020704703207047D0F8BC0228B1E7
:1043B000C0F81022C0F80812002070470320704790
:1043C0002DE9FC410646D0F8BC7200200C468DF861
:1043D0000000ADF80400054637B1207810F0600108
:1043E00028D0202944D102E00320BDE8FC81E288E6
:1043F000C2B1000660780AD5D6F8C0128B6839467B
:104400009847E288072A00D90722394628E087F82A
:104410000002A07987F80102E2883946304600F0B0
:104420006CF82AE0D6F8C012607800228B6821462A
:10443000984722E0607830B101281ED00A2809D0C0
:104440000B2815D110E096F89C02032810D1022207
:1044500001A905E096F89C02032809D101226946CA
:10446000304600F064F808E096F89C02032804D077
:104470002146304600F036F803252846B5E710B54A
:10448000D0F8BC12012219B1D1F8143213B10FE0E7
:10449000032010BD0122C1F81422D1F81022C262FB
:1044A000D1F81032D1F80822812100F05CFA002204
:1044B000104610BD10B5D0F8B8220AB15268904726
:1044C000002010BD134610B50A46002100F0A4F9E3
:1044D000002010BD134610B50A46002100F043FA33
:1044E000002010BD10B50446802100F021FA2046BE
:1044F000BDE81040002100F01BBA10B50323C0F83E
:104500009432C0F858211346C0F85C210A460021B5
:1045100000F082F9002010BD10B50521C0F89412FA
:1045200000231A46194600F077F9002010BD10B597
:104530000223C0F8943282611346C2610A46002108
:1045400000F011FA002010BD10B50421C0F894123B
:1045500000231A46194600F006FA002010BD70B577
:10456000002300281ED00025044602E06D1CEDB299
:10457000641C2678002EF9D1022404EB4504148033
:104580001278CA545B1C0322CA5400245B1C06E048
:10459000CA545B1CDAB28C54521CD3B2401C027851
:1045A000002AF5D170BD01004FF0000004D00129B0
:1045B00001D0022901D0032070470120704778B153
:1045C0000023C0F8B832C0F8C032C0F8CC3209B10C
:1045D000C0F8B412012180F89C12027000F0B0B84B
:1045E0000320704710B5D0F8C402FDF721FABDE8EA
:1045F0001040FFF7D8BF10B5D0F8C402FDF7F2F9AC
:10460000BDE81040FFF7CFBF70B51646044621B194
:1046100094F89C02032841D048E0D4F8941204F1A5
:1046200014000025022932D1D0E90232934206D982
:104630009A1A826031462046FFF74CFF0FE09A42FB
:1046400014D14068904211D3D4F8981288420DD208
:10465000002211462046FFF73DFFC4F89852002380
:104660001A461946204600F0D7F810E094F89C024C
:10467000032805D1D4F8B802C16809B1204688479B
:104680008021204600F054F92046FFF745FF94F8BA
:10469000A00201280AD184F8A05207E0D4F8B80299
:1046A00042691AB120469047002800D1002070BD11
:1046B00010B51346044621B194F89C02032823D078
:1046C0002AE0D4F8941204F5AA70032924D1D0E981
:1046D00002218A420AD9521A82600846824200D3D5
:1046E000024619462046FFF7EDFE15E094F89C02BD
:1046F000032805D1D4F8B802016909B120468847DA
:104700002046FFF721FF07E0D4F8B80282691AB10A
:1047100020469047002800D1002010BD002070479F
:1047200010B5012180F89C12D0F8B82212B152685D
:1047300001799047002010BDD0F8C402FDF7A6B95A
:1047400010B5017839BB15490222C1F80404C0F83C
:10475000C4124FF0A0400860042048600020C1E966
:104760000320C1E9062008624862C862086308465F
:10477000FDF762FC08B1FCF736F880210748FDF729
:10478000F0F8402200210548FDF7EFF880220121D2
:104790000248FDF7EAF8002010BD000018330020A1
:1047A0000A0601F07F01D0F8C402C1EBC10100EBA1
:1047B000810002D590F83E00704790F8FE017047E6
:1047C00010B5D0F8B82222B190F89C32032B02D059
:1047D00004E0032010BD126A02B19047002010BD12
:1047E00010B5D0F8B82222B190F89C32032B02D039
:1047F00004E0032010BD526A02B19047002010BDB2
:1048000010B51C461346D0F8C4022246FDF747F9FE
:10481000BDE81040FFF7C7BE10B5D0F8C402FDF7E1
:104820006EF9BDE81040FFF7BEBE70B50125044625
:1048300080F89C520020C4F894026060C4F8A4027E
:10484000D4F8B802E0B1D4F8BC1221B1426812B178
:104850000021204690470022402311462046FFF7C2
:10486000CFFF4026A4F86451334600228021204621
:10487000C4F86061FFF7C4FFA5840020266270BD04
:10488000032070BD90F89C12042903D190F89D126A
:1048900080F89C120020704710B5D0F8B81221B1F2
:1048A00090F89C22032A02D004E0032010BDC969BD
:1048B00001B18847002010BD01740020704710B579
:1048C000D0F8C402FDF78AFCBDE81040FFF76BBECC
:1048D00070B5044600F2AA20054600F04DF801200C
:1048E000C4F89402B4F8B002C4F8980294F8AA226A
:1048F00012F01F000AD001280ED0022812D0204644
:10490000BDE8704002F0800100F012B82946204650
:10491000BDE8704000F066B829462046BDE870400A
:1049200000F08AB929462046BDE8704000F0E4B89E
:1049300010B5D0F8C402FDF706F9BDE81040FFF746
:1049400032BE10B5D0F8C402FDF763FCBDE81040DC
:10495000FFF729BE90F89C1280F89D12042180F880
:104960009C120020704710B5D0F8C402FDF725F95D
:10497000BDE81040FFF717BE70B5044611F8010BF3
:10498000207011F8010B60700D46084603F0E1FA43
:10499000A91C60800D46084603F0DBFAA080A81C25
:1049A00003F0D7FAE08070BD38B504460020ADF8BA
:1049B000000049B1C4F8B812C96A19B168468847FD
:1049C000C4F8CC02002038BD032038BD03460320C4
:1049D000D3F8B822002A02D0126818461047704750
:1049E000FFF7AFBF2DE9F0410A78002712F060020F
:1049F00008D0202A01D0402A71D1D0F8B82292687C
:104A0000904731E04A78002301260A2A67D2DFE87E
:104A100002F0415E6658660805662D2903F026FA05
:104A20005FE004468888D8B9C888C8B94888802813
:104A300016D200F07F0594F89C02032810D084F869
:104A40009E5229462046FFF73AFF2046FFF77CFD9D
:104A50001DB1022084F89C0243E084F89C6240E08F
:104A600020463CE003F0A4F907463AE0CA88012A50
:104A700035D190F89C22012A04D0022A02D0032AC0
:104A80002DD104E0012200F10801836016E001222B
:104A9000011D13E090F89C22012A03D0022A01D0C4
:104AA000032A1CD1CA88022A19D1C660D0F8A412E0
:104AB00009B10321C160022200F10C01FFF737FDAB
:104AC0000FE0498801290CD1C0F8A46211E090F8E8
:104AD0009C22012A08D0022A06D0032A04D0FFF71C
:104AE00001FD3846BDE8F08149880129F9D1C0F8B7
:104AF000A432FFF729FDF4E72DE9F0410D46044605
:104B000028780027097910F060000BD0202801D008
:104B100040286DD1D4F8B8022946826820469047D3
:104B2000074686E06878A8B3012822D003287CD104
:104B300094F89C02022802D0032876D10BE00029C9
:104B400073D0802971D02046FFF7F2FE80212046E5
:104B5000FFF7EEFE6DE0688838B931B1802904D0E6
:104B6000E88810B92046FFF7E3FE2046FFF7ECFC8B
:104B70005FE094F89C020228E1D0032855D16888B0
:104B8000A8BB480602D02046FFF72CFD2046FFF7C1
:104B9000DBFCBFE7FFE794F89C020026022802D066
:104BA000032842D111E009B180293ED1080601F065
:104BB0007F0000EB800004EB800101D5143101E09F
:104BC00001F5AA7102220E602BE0080601F00F0029
:104BD00000EB800004EB80000BD5808C40B101F02D
:104BE0007F0000EB800004EB800514350CE020E032
:104BF0001BE0B0F86401C0B101F07F0000EB800061
:104C000004EB800505F5AA7541B1802906D0204640
:104C1000FFF7C6FD10B10120286000E02E600222DF
:104C200029462046FFF783FC03E029462046FFF78C
:104C300059FC3846BDE8F08170B506460878002476
:104C40000D4610F0600203D0202A01D0402A17D16F
:104C500096F89C02012803D0022801D003280FD126
:104C6000287901280CD8D6F8B802826830469047D7
:104C7000E9880446214306D13046FFF765FC02E08F
:104C80003046FFF72FFC204670BD70470048704744
:104C9000F830002070B50A78012302F00F054E7835
:104CA000AB401B4CD0F81C58012E17D045EA0343EB
:104CB000C0F81C3800EB4210D0F8002B12040BD4C3
:104CC000D0F8002B0B89C978C3F30A031A4344EACE
:104CD00081410A43C0F8002B002070BD9BB21D43E8
:104CE000C0F81C5800EB4210D0F800391B04F3D474
:104CF000D0F800390D89C978C5F30A0589042B431A
:104D000041EA82510B432343C0F80039E4E7000035
:104D100000800010D0F800196FF30A01C0F80019E4
:104D2000D0F8041841F48071C0F8041800207047CE
:104D300070B5044606980A9E049D0D99012816D068
:104D4000E06840F04000E060204603F007F9A16B06
:104D50001EB321F48031A163012D07D1A16841F078
:104D60000601A160A16841F02001A16070BDA06BA7
:104D700020F48030A063E068094A1040E060E068F9
:104D800020F44010E060012903D1E06840F4801075
:104D9000E060204603F0E2F8DEE741F48031DAE734
:104DA000BFFFBDFF70B54C780A78012300EB4212BB
:104DB000012C2DD0D2F8004B002C0BDAD2F8004B8E
:104DC00044F00064C2F8004BD2F8004B44F0804439
:104DD000C2F8004BD0F83C480D781E4605F00F0590
:104DE000AB4024EA0343C0F83C38D0F81C480978AB
:104DF00001F00F0106FA01F324EA0341C0F81C1880
:104E0000D2F8000B19490840C2F8000B002070BD11
:104E1000D2F80049002C0BDAD2F8004944F00064C3
:104E2000C2F80049D2F8004944F08044C2F8004971
:104E3000D0F83C480D7805F00F061D46B3409BB2F4
:104E40009C43C0F83C48D0F81C48097801F00F0199
:104E500005FA01F399B28C43C0F81C48D2F8000956
:104E600003490840C2F80009D0E700000078F3EFDA
:104E7000007833ECD0F8001E21F00301C0F8001ECA
:104E8000D0F8041821F00201C0F80418002070477F
:104E9000D0F8001E21F00301C0F8001ED0F804185D
:104EA00041F00201C0F80418002070472DE9F04FCE
:104EB0000D46DDE90B1B00270446DDF824A0DDF8D4
:104EC000409038463E4604EB8002C2F80461401C24
:104ED0000F28F8D3B9F1000F204615D0806B20F4CD
:104EE0000012A263A06B40F400222046A263C4F823
:104EF000006ED4F80028C4F80028012916D0D0F894
:104F0000001841F0030116E0D0F8040840F0020256
:104F1000C4F80428A06B40F40012A263A06B20F434
:104F20000022A263A06B20F48022DEE7D0F80018F4
:104F30000BB141F00101C0F80018102100F092FA05
:104F400000B10127204600F079FA00B10127C4F82A
:104F50001068C4F81468C4F81C6800204FF000639F
:104F60004FF090424FF67F3C14E004EB4011D1F833
:104F70000089B8F1000F06DA10B1C1F8002904E089
:104F8000C4F8003901E0C1F80069C1F81069C1F83E
:104F900008C9401C8542E8D8002014E004EB401109
:104FA000D1F8008BB8F1000F06DA10B1C1F8002B70
:104FB00004E0C4F8003B01E0C1F8006BC1F8106BDD
:104FC000C1F808CB401C8542E8D8D4F8100820F47A
:104FD0008071C4F81018A6616FF080406061BAF16A
:104FE000000F03D1A06940F01000A061A0690A4938
:104FF0000843A061BBF1000F03D0A06940F0080096
:10500000A061B9F1010F03D1A06904490843A0616F
:105010003846BDE8F08F000000383C8004000040B6
:10502000816821F0010181600020704770B50D7822
:105030004E78434CEBB200EB4313012E1FD0D3F854
:10504000100B6FF31200C3F8100BD3F8100B2040B5
:10505000C3F8100B486908B188684861D3F8100B91
:1050600040F40020C3F8100BD3F8100B8C68C4F385
:1050700012042043C3F8100B012A55D058E04E69A2
:10508000002ED3F8106932D06FF31206C3F81069FE
:10509000D3F810692640C3F810694E698C68A6429F
:1050A00000D94C61D3F8104944F40024C3F81049E6
:1050B000D3F810494E69C6F312063443C3F81049B9
:1050C000012A22D000EB4512D2F8003943F0044304
:1050D000C2F800394A6932B3D0F83428097801F0AF
:1050E0000F03012199400A43C0F8342826E02640E6
:1050F000C3F81069D3F8104944F40024C3F81049E8
:10510000D3F810496FF31204D8E7096919B100EB1D
:105110004512C2F8141900EB4510D0F8001941F0FF
:105120000441C0F8001909E0C86808B1C3F8140BBD
:10513000D3F8000B40F00440C3F8000B002070BD12
:10514000FFFF07E010B5036C134CA34203D9D0F85E
:10515000003B002B1EDB0023C0F8103BD0F8103BB7
:1051600043F40023C0F8103BD0F8103B43F0180381
:10517000C0F8103BD0F8103B43F0C043C0F8103BE0
:10518000012907D1C0F8142BD0F8001B41F0802171
:10519000C0F8001B002010BD0A30544F4A780B782D
:1051A000012A00EB43100BD0D0F8002B22F40012A0
:1051B000C0F8002BC978032914D0022912D017E0B7
:1051C000D0F8002922F40012C0F80029C978032978
:1051D00001D002290CD1D0F8001941F08051C0F85B
:1051E000001905E0D0F8001B41F08051C0F8001B09
:1051F000002070470A784B78D1B200EB4110012BA8
:1052000012D0D0F8001B002906DB2AB1D0F8001B11
:1052100021F08041C0F8001BD0F8001B41F40011C0
:10522000C0F8001B00207047D0F80019002906DBE9
:105230002AB1D0F8001921F08041C0F80019D0F847
:10524000001941F40011C0F80019EBE7F8B50C782B
:105250004E78764DE3B26FF0604700EB4313012EBA
:1052600026D0D3F8104B6FF31204C3F8104BD3F8C9
:10527000104B2C40C3F8104B4D69002D73D08C6837
:1052800025446D1EB5FBF4F4D3F8105BA4B207EA15
:10529000C4463543C3F8105BD3F8105B8E68664391
:1052A000C6F312042543C3F8105B012A70D0A5E0B1
:1052B0004E69002ED3F8106921D06FF31206C3F89F
:1052C0001069D3F810692E40C3F810694E698D68D3
:1052D0002E44761EB6FBF5F5D3F8106907EAC545EE
:1052E0003543C3F81059D3F810594E69C6F3120666
:1052F0003543C3F81059CD78012D0ED019E02E405A
:10530000C3F81069D3F8105945F40025C3F81059B3
:10531000D3F810596FF3120509E0D3F8105925F0AE
:10532000C045C3F81059D3F8105945F00055C3F8DB
:105330001059012A18D000EB4413D3F8004944F067
:105340000444C3F80049CC78012C2FD04A6962B3D9
:10535000D0F83428097801F00F03012199400A435D
:10536000C0F8342860E036E00A691AB100EB441353
:10537000C3F81429C97801290FD1D0F80818C90534
:1053800000EB4411D1F8002903D442F0005202E0AE
:1053900030E042F08052C1F8002900EB4410D0F810
:1053A000001941F00441C0F800193DE0D0F8084868
:1053B000E405D3F8004902D444F0005401E044F07D
:1053C0008054C3F8004900928A8A93B20A78C96867
:1053D00000F06EF928E0D3F8104B8D68C5F3120584
:1053E0002C43C3F8104BD3F8104B44F40024C3F8FB
:1053F000104B5AE7CA680AB1C3F8142BC9780129BF
:105400000CD1D0F80808C005D3F8000B02D440F046
:10541000005001E040F08050C3F8000BD3F8000BBF
:1054200040F00440C3F8000B0020F8BDFFFF07E088
:10543000816841F0010181600020704708B50021BA
:10544000009110210161064A0099491C0091914286
:1054500001D9032008BD0169C906F5D4002008BDA3
:10546000400D030008B500220092202242EA81117B
:105470000161064A0099491C0091914201D903201B
:1054800008BD01698906F5D4002008BD400D030060
:10549000D0F8080810F0060004D0022803D006282F
:1054A00001D00F20704702207047406900F00100D2
:1054B0007047D0F81818D0F81C08084080B2704720
:1054C000D0F81818D0F81C080840000C704710B528
:1054D000D0F81038D0F8342801F00F0400EB411058
:1054E000E24002F00102D0F8080943EAC21210407B
:1054F00010BD00EB4111D1F8081BD0F8140808408A
:105500007047416980690840704730B503460846D6
:10551000940802F00301002203F5805303E01D68A4
:1055200040F8045B521CA242F9D300290BD01C683E
:105530000022D50024FA05F3491E521C090400F884
:10554000013B090CF5D130BD70B50546C06800249B
:1055500020F0C040E860012901D079B120E0E8687E
:1055600040F00050E8600120FBF70CFF6869641C04
:1055700010F0010F10D1322CF5D30DE0E86840F0A7
:105580008040E8600120FBF7FDFE6869641C10F0B4
:10559000010F01D0322CF5D3322C01D0002070BD88
:1055A000012070BDD0F8002822F4FE62C0F8002867
:1055B000D0F800284FF4FE6303EA01110A43C0F853
:1055C0000028002070470000022A3ED1264A274BBF
:1055D0000A449A4201D20F2138E0254A254B0A4459
:1055E0009A4201D20E2131E0234A244B0A449A42C6
:1055F00001D20D212AE0224A224B0A449A4201D2CA
:105600000C2123E0204A214B0A449A4201D20B216B
:105610001CE01F4A1F4B0A449A4201D20A2115E09E
:105620001D4A1E4B0A449A420FD31D4A1D4B0A4481
:105630009A4201D2082109E01B4A11441B4A9142B7
:1056400001D2072102E0062100E00921C26822F40C
:105650007052C260C2684FF4705303EA81210A435A
:10566000C260002070470000405327FF00350C0047
:10567000401E1BFF40420F0000DC0BFF804F12005A
:10568000808CF9FE20D6130060B6E5FE60E31600BC
:1056900000D3CEFE40771B00C05BB3FEC09121005B
:1056A00000CA91FE20753800E05459FEE09C41008C
:1056B00010B5029C6CB9DB1C9C0800EB0230002387
:1056C00000F5805003E051F8042B02605B1CA342FC
:1056D000F9D3002010BDFEE72DE9F04F85A195B06C
:1056E00009680E9184A1022409680F9181A1052601
:1056F0000968109180A140F25223096811917FA19D
:105700004FF00408D1E90021CDE908217AA1142540
:10571000096812917BA1D1E90021CDE90A217BA181
:10572000D1E90021CDE90C2172A10968139179A179
:10573000D1E90021CDE90621784901F1040A01F1FE
:105740003C0B01F10807C8B30DF10C0C06AA20466A
:1057500002948CE80700CDE90056A1464FF4D862C8
:105760000121002000F084FF06ACCDE904A40396DB
:105770008DE820034FF4D86A4FF407735246012195
:10578000002000F075FFA04602A84C46CDF814801A
:1057900080E85008CDE900564FF4F37352460121DA
:1057A000002000F065FF0DF10C09029489E89001DA
:1057B00001214FF4D8735246002078E0FFE75848A3
:1057C0004FF00309807868B1012818D10FA8CDE9FE
:1057D0000410CDE90059022102944FF4D8620394D9
:1057E00000200AE00EA8CDE90410CDE90246CDE97B
:1057F00000584FF4D8620221002000F039FF4848D9
:10580000407910B101281DD10DE010A9CDE904A106
:10581000CDE90246CDE9005802214FF407734FF459
:10582000D86200200CE011A9CDE904A1CDE900590E
:1058300002944FF407734FF4D862039402210020BE
:1058400000F016FFDFF8D8A09AF8030078B101281D
:105850001CD112A9CDE904B1CDE90059022102946D
:105860004FF4F3734FF4D862039400200CE008A9BE
:1058700002A8059180E85008CDE900564FF4F37373
:105880004FF4D8620221002000F0F2FE9AF80100E5
:1058900080B101281CD0022829D10AA8CDE90470C2
:1058A0004FF4D8739A000221029403940020CDE9AA
:1058B00000561AE013A8CDE904700621CDE9024193
:1058C0004FF4D873CDE900589A00022100200CE073
:1058D0000CA8CDE904700720CDE900504FF4D8732F
:1058E000029403949A000221002000F0C1FE15B03A
:1058F000BDE8F08F4F4646004F4E00004C4F5354CA
:10590000000000005350494E00000000464F4C4C30
:105910004F570000494E4954000000008C00002001
:105920004C0A00207CB51D46ADF80000069CADF881
:105930000210ADF80420062269460848FAF72DFD4A
:1059400006482246801D2946FAF727FDA41DA1B26C
:1059500040F2013000F056F97CBD00005F0A0020E3
:1059600010B586B030B3012113480DF1040C00F1DD
:10597000700441710323022204208CE81D001E20C4
:1059800000906C2340F28A32002000F027F8014694
:105990000F220A48FAF701FD0F2000900748074B35
:1059A000B430017840F2011001F58072FFF7BAFFC0
:1059B00006B010BD0221D7E748000020980900205A
:1059C00000B587B00091002101910291CDE9031348
:1059D00006AB6946FAF71BFF07B000BD2DE9F0479B
:1059E000DFED2C0A08ADDDE90B6420EE200A95E816
:1059F0008006BDEEC00ADFF8A0C010EE105ACCF849
:105A00001450DFF898C0B4F80080ACF80480A47893
:105A10008CF806400CF1040434F803CF60F3891CC1
:105A2000A4F800C0207861F3020020F0380028308C
:105A30002070A0886AF30900A080607866F3850072
:105A40006070B4F8050062F38C00A4F80500E088EB
:105A500063F34F10E080B4F8011067F38E11A4F8DF
:105A60000110618869F3CF1161802089A90A65F36B
:105A700009002081B4F8090061F38C00A4F8090042
:105A80006089690D61F34F1060810448001DBDE815
:105A9000F087000000007A44480000200C0A002033
:105AA000F0B585B01E48042503240295CDE90340D6
:105AB000002640F25320CDE900064FF4F377012190
:105AC0003B4640F21332084600F0B8FE01460F2272
:105AD0001448FAF762FC12480295001DCDE9034014
