:020000040800F2
:1000000078BD002075020008ED6500080D5E00084F
:10001000E965000823130008B98600080000000005
:10002000000000000000000000000000036600085F
:100030003114000800000000016600080566000891
:100040008F0200088F0200088F0200088F0200084C
:100050008F0200088F020008331400088F02000886
:100060008F0200083D140008471400088F020008A2
:10007000A1130008B11300088F020008C113000883
:100080008F0200088F0200088F0200088F0200080C
:1000900029130008391300088F02000851140008C2
:1000A0008F0200088F0200088F0200088F020008EC
:1000B0008F0200088F0200088F0200088F020008DC
:1000C0008F0200088F0200088F0200088F020008CC
:1000D0008F020008996800088F020008A9680008CC
:1000E0008F0200088F0200088F02000831660008A6
:1000F0008F0200088F0200088F0200088F0200089C
:100100008F0200088F020008216600088F02000895
:100110008F0200088F0200088F0200088F0200087B
:100120008F020008D1130008E1130008F113000842
:100130008F0200088F0200088F0200088F0200085B
:1001400049130008591300088F020008F1650008E0
:10015000011400081114000821140008B9680008EF
:100160008F0200088F0200088F0200088F0200082B
:100170008F0200088F0200088F02000800000000B4
:100180008F0200088F02000800F002F800F062F809
:100190000AA090E8000C82448344AAF10107DA45E2
:1001A00001D100F057F8AFF2090EBAE80F0013F0D2
:1001B000010F18BFFB1A43F001031847948A01008E
:1001C000B48A01000A444FF0000C10F8013B13F010
:1001D000070408BF10F8014B1D1108BF10F8015BA0
:1001E000641E05D010F8016B641E01F8016BF9D193
:1001F00013F0080F1EBF10F8014BAD1C0C1B09D1EA
:100200006D1E58BF01F801CBFAD505E014F8016B5B
:1002100001F8016B6D1EF9D59142D6D370470000ED
:100220000023002400250026103A28BF78C1FBD8FF
:10023000520728BF30C148BF0B6070471FB517F089
:10024000C8FA9DE8030000F0E3FE00F0B3FE1FBD16
:1002500010B510BD00F086FF1146FFF7EFFF15F057
:10026000D3FC00F0A4FF03B4FFF7F2FF03BC00F0DF
:10027000DBFF00000948804709480047FEE7FEE72A
:10028000FEE7FEE7FEE7FEE7FEE7FEE7FEE7FEE746
:1002900004480549054A064B704700000D660008F2
:1002A00089010008785D002078BD0020787D00205D
:1002B000787D0020B5EEC00AF1EE10FA07D2DFED2E
:1002C0001E0AB4EEE00AF1EE10FAA8BF7047DFEDA7
:1002D0001B0AB5EEC00A60EE200ABDEEE01A11EE70
:1002E000100AF1EE10FA38BF401E00EE100A154950
:1002F000F7EE001AB8EEC00A30EEC00ADFED100AC1
:1003000060EE200ABCEEE00A10EE100AC0F308000E
:1003100000EE100A01EB8000B8EE400A90ED011AE1
:1003200070EEC00A90ED000A71EEE01A21EE800A2C
:1003300000EE810A70470000CD024CB483F9223EE2
:10034000000000442C82010870B405880E884468BF
:10035000D1F804C05368B54208D140884988884222
:1003600001BF11888D425188884203D070BC6FF064
:100370000200704705FB00F1880827D094ED001AB1
:10038000DCED000A94ED010ADCED011A31EE201AD1
:10039000D4ED020A70EE211A9CED020A83ED001AD8
:1003A000C3ED011A94ED031ADCED031A30EE800A56
:1003B000401E71EE210A83ED020A04F11004C3ED20
:1003C000030A03F110030CF1100CD7D111F0030054
:1003D00030D0B0F1004F30D200282BDD211F1B1F81
:1003E000ACF1040210F0010F0AD091ED010AD2ED38
:1003F000010A091D121D30EE200A83ED010A1B1DA2
:10040000400817D091ED010AD2ED010A401E30EEEE
:10041000200A83ED010A91ED020AD2ED020A01F1F0
:10042000080102F1080230EE200A83ED020A03F10E
:100430000803E7D170BC00207047B4EC010A401EED
:10044000FCEC010A30EE200AA3EC010AF5D1F1E739
:1004500001804280436070472DE9F34F84B00498D7
:1004600040680090486801900498B0F800E0458822
:10047000DFEDFE0A00200290B0EE600AAE4506D124
:1004800008884988884204BF7146864504D06FF0C9
:10049000020006B0BDE8F08F01985FEA010C18BFBA
:1004A000B7EE001A3DD000BFBEEB0C0117D0B1F182
:1004B000004F80F01F82002911DD021F11F0010F93
:1004C0001CBFC2ED010A121D4B1006D0C2ED010A7D
:1004D000C2ED020A08325B1EF8D100EB8100BCF1CC
:1004E0000102A0EC011A19D0B2F1004F80F008828D
:1004F000002A13DD031F12F0010F1CBFC3ED010A18
:100500001B1D511008D000BFC3ED010AC3ED020A44
:10051000491E03F10803F7D100EB8200BCF1010C86
:10052000C2D14FF000080395002D14BFB0EE602A31
:10053000002000F0BF8100BF009908FB05F001EB2F
:10054000800B0199DBED002A01EB80000346F0EE01
:10055000421AC64552D9AEEB0802ABEB850112F048
:10056000010F17D001EB850191ED000AB5EEC00A2D
:10057000F1EE10FA07DDB4EEE10AF1EE10FA09DD52
:10058000F0EE401A06E0B1EE400AF4EEC01AF1EEC9
:1005900010FAF5D3521031D001EB850C9CED000A16
:1005A000B5EEC00AF1EE10FA05DDB4EEE10AF1EEA7
:1005B00010FA09DD06E0B1EE400AF4EEC01AF1EEE1
:1005C00010FA01D2F0EE401A01EBC50191ED000ADC
:1005D000B5EEC00AF1EE10FA05DDB4EEE10AF1EE77
:1005E00010FA09DD06E0B1EE400AF4EEC01AF1EEB1
:1005F00010FA01D2F0EE401A521ECDD1F5EEC01A1B
:10060000F1EE10FA00F07381F5EEC02A0126F1EE4A
:1006100010FA0099D4BFB1EE620AB0EE620AB4EEED
:10062000610AF1EE10FA1CBFAEEB0802B2F1010C48
:1006300047D005FB08F201EB820292ED001A00BFE1
:10064000B0EE410A05FB06F4B5EEC00A00EB8404E7
:10065000F1EE10FACCBFF0EE400AF1EE400AF4EEF3
:10066000610AF1EE10FA28D1B5EB080C11D0BCF1FB
:10067000004F7DD2BCF1000F0BDD00BF92ED000AF0
:10068000D1ED000ABCF1010CE2EC010AA1EC010A77
:10069000F4D129000ED0B1F1004F6AD2002909DD52
:1006A00094ED000AD0ED000A491EE4EC010AA0EC2A
:1006B000010AF5D1012002900BE0761CBCF1010C7F
:1006C000BED10298012804D0F5EEC02AF1EE10FA4E
:1006D0007ED09BED000AB5EB08009A4659460646C7
:1006E00022D0B0F1004F74D200281DDD091F10F098
:1006F000010F06D0F0EE400A80EEA01A81ED011A3B
:10070000091D401010D000BFD1ED010A401E80EE3F
:10071000801A81ED011A91ED021AC1EE000AC1EDB5
:10072000020A01F10801EFD1280026D0B0F1004FF4
:100730007ED2002821DDAAF1040110F0010F06D0BD
:10074000D1ED010A80EE801A81ED011A091D4010D9
:1007500013D000BFD1ED010A401E80EE801A81ED5A
:10076000011AD1ED020A80EE801A81ED021A01E031
:10077000CBE0D6E001F10801ECD1DDE900124FF049
:1007800000095FEA0E0773D0C14504BF01EB860183
:1007900002EB850274D091ED000ADC465046331E10
:1007A00035D01C46B6F1004F7ED2002C2FDD0B1F3A
:1007B000ABF1040C16F0010F0FD0F0EE400ADCEDA7
:1007C000011AB0EE601A00EEE11A83ED011A01E0A1
:1007D0008DE0B1E01B1D0CF1040C741015D000BFAE
:1007E000D3ED010A9CED011A40EE410AC3ED010A66
:1007F000D3ED020A9CED021A0CF1080C40EE410AFE
:10080000C3ED020A0833641EEAD101EB86012B0016
:1008100036D0B3F1004F72D2002B31DDA2F1040CBF
:10082000AAF1040013F0010F0CD0DCED010A00E086
:100830008BE090ED011A001D40EE410ACCED010A5B
:100840000CF1040C5C1019D0DCED010A90ED011ADA
:1008500040EE410ACCED010ADCED020A90ED021AED
:10086000083040EE410ACCED020A03E0000000002F
:100870000DE005E0641E0CF1080CE5D102EB8302EB
:1008800001EB88017F1E09F101097FF47DAF00981B
:1008900008F10108001D00900398401E03907FF4AA
:1008A0004BAE0299012900E058E004BF06B0BDE854
:1008B000F08F00BFB5EEC00AF1EE10FA7FF4E9AD9B
:1008C00004990EFB05F3002B4A684FF000010BD989
:1008D00002EB810C9CED000AB5EEC00AF1EE10FAB5
:1008E00002D1491C8B42F3D88B427FF4D2AD6FF01A
:1008F0000400CEE5E0EC010A491EFBD1EFE538E04B
:10090000E0EC010A521EFBD108E692ED000AD1ED9F
:10091000000ABCF1010CE2EC010AA1EC010AF4D1DD
:10092000B7E694ED000AD0ED000A491EE4EC010A96
:10093000A0EC010AF5D1BDE6D1ED000A401E80EE23
:10094000801AA1EC011AF7D1EEE6D3ED000A401EA1
:1009500080EE801AA3EC011AF7D10EE7BCEC011A65
:10096000D1ED000A5B1E40EE410AE1EC010AF5D12F
:100970004DE7B0EC011AD2ED000A5B1E40EE410AD1
:10098000E2EC010AF5D17BE72DE9F04F82B0466831
:1009900053680193058847884B8800200090088899
:1009A000874201BFB2F800C06545528893421EBF1E
:1009B0006FF0020002B0BDE8F08F9FED412A4FEAD0
:1009C000970EC7F3400B00BFDDE9000202EB800A7F
:1009D0004A6898464FF00009B0EE420AB4465FEA12
:1009E0000E0025D092ED001ADCED001A02EB830216
:1009F000DCED010A01EE810A92ED001A02EB83029E
:100A0000401ED2ED001A02EB830200EE810A9CED3B
:100A1000021ADCED030A00040CF1100C000C01EECC
:100A2000210A92ED001A02EB830200EE810AD9D16D
:100A300017F0030026D0ACF10404A2EB830210F0FF
:100A4000010F08D002EB8302D4ED010A92ED001AE7
:100A5000241D00EE810A5FEA0B0013D002EB830C29
:100A6000D4ED010A9CED001A02EBC302401E00EE19
:100A7000810AD4ED020A92ED001A04F1080400EE96
:100A8000810AEBD109F10100AAEC010A1FFA80F9F1
:100A9000486800EB8902A8F101001FFA80F8B8F15C
:100AA000000F99D1009806EB8706184480B2009099
:100AB000681E05042D0C87D102B00020BDE8F08F20
:100AC0000000000070B405880E884468D1F804C0A6
:100AD0005368B54208D140884988884201BF1188CF
:100AE0008D425188884203D070BC6FF0020070477D
:100AF00005FB00F1880827D094ED001ADCED000A10
:100B000094ED010ADCED011A31EE601AD4ED020A0F
:100B100070EE611A9CED020A83ED001AC3ED011A12
:100B200094ED031ADCED031A30EEC00A401E71EE9C
:100B3000610A83ED020A04F11004C3ED030A03F114
:100B400010030CF1100CD7D111F0030030D0B0F12C
:100B5000004F30D200282BDD211F1B1FACF10402F7
:100B600010F0010F0AD091ED010AD2ED010A091D22
:100B7000121D30EE600A83ED010A1B1D400817D0DC
:100B800091ED010AD2ED010A401E30EE600A83EDBC
:100B9000010A91ED020AD2ED020A01F1080102F107
:100BA000080230EE600A83ED020A03F10803E7D180
:100BB00070BC00207047B4EC010A401EFCEC010A36
:100BC00030EE600AA3EC010AF5D1F1E72DE9F04F10
:100BD00002884768B0F802804888D1F8049082B053
:100BE0004FF0000A1646824207BF098888456FF019
:100BF000020002B018BFBDE8F08F4FEA980B02EB7D
:100C000042000190C8F34000CDF8000009EB8A01D2
:100C1000BBF1000F33D0019801EB820C01EB800493
:100C20003B46E64601EBC2054FEA0B0093ED000A96
:100C3000401E81ED000A93ED010A01EB02118CEDDB
:100C4000000A93ED020A0CEB021C85ED000A93EDFD
:100C5000030A05EB021584ED000A04EB021403F10C
:100C60001003E3D10EEB820000EB820000EB820167
:100C7000ABF10100504307EB0B1701EB001118F02B
:100C8000030C21D03B1FA1EB82011CF0010F06D009
:100C900093ED010A01EB82011B1D81ED000A009812
:100CA00080B100BF93ED010A01EB820401EBC201A8
:100CB00084ED000A93ED020A401E81ED000A03F163
:100CC0000803EFD107EB8C070AF101001FFA80FA45
:100CD000701E0604360C99D102B00020BDE8F08FDA
:100CE00070B5064600F078F9056806F10B0020F0B3
:100CF0000704B4429CBF002070BD2B466A68BAB19D
:100D00001068A04210D304F1080188423CBF50682B
:100D1000586007D35168101941601168091B0160C0
:100D200058601460101D70BD13465268002AE7D148
:100D30002146284600F058F90028DED170BD53EA5C
:100D4000020C00F069802DE9F04B4FF00006002BFB
:100D50001FBFB3FA83F503FA05F424FA05F65E40E3
:100D600012BF1643B2FA82F502FA05F4C5F1200566
:100D70001EBF22FA05FC44EA0C04203556EA044C56
:100D80004FEA144418BF641C4FF000084FF00009EC
:100D9000904271EB030C39D3002919BFB1FA81F7E6
:100DA00001FA07F6B0FA80F700FA07F6C7F1200754
:100DB0001EBF20FA07FC46EA0C062037B6FBF4FCFF
:100DC000A7EB0507103F07F01F0BCBF120060CFA2D
:100DD0000BFB2CFA06F644BFB3460026202FA4BF17
:100DE0005E464FF0000B5BEA060C08BF4FF0010BAC
:100DF00019EB0B09ABFB027C48EB0608C01B06FB9A
:100E000002CC0BFB03CC71EB0C01C1E70B46024695
:100E100041464846BDE8F08B13B54FF000004FF057
:100E20000001AFF30080BDE81C407047032A40F288
:100E3000308010F0030C00F0158011F8013BBCF17C
:100E4000020F624498BF11F801CB00F8013B38BF94
:100E500011F8013BA2F1040298BF00F801CB38BFA2
:100E600000F8013B11F0030300F02580083AC0F0C0
:100E7000088051F8043B083A51F804CBA0E8081068
:100E8000F5E7121D5CBF51F8043B40F8043BAFF39B
:100E90000080D20724BF11F8013B11F801CB48BFF5
:100EA00011F8012B24BF00F8013B00F801CB48BF2B
:100EB00000F8012B704710B5203AC0F00B80B1E864
:100EC0001850203AA0E81850B1E81850A0E818507F
:100ED000BFF4F5AF5FEA027C24BFB1E81850A0E888
:100EE000185044BF18C918C0BDE810405FEA827CA2
:100EF00024BF51F8043B40F8043B08BF7047D207B9
:100F000028BF31F8023B48BF11F8012B28BF20F859
:100F1000023B48BF00F8012B70474FF00002042944
:100F2000C0F0128010F0030C00F01B80CCF1040C18
:100F3000BCF1020F18BF00F8012BA8BF20F8022B4C
:100F4000A1EB0C0100F00DB85FEAC17C24BF00F8F2
:100F5000012B00F8012B48BF00F8012B70474FF020
:100F6000000200B5134694469646203922BFA0E8F9
:100F70000C50A0E80C50B1F12001BFF4F7AF090705
:100F800028BFA0E80C5048BF0CC05DF804EB8900F6
:100F900028BF40F8042B08BF704748BF20F8022B39
:100FA00011F0804F18BF00F8012B70477047704751
:100FB0007047000070B5064C7C44064D7D4403E04C
:100FC000206820448047241DAC42F9D170BD000048
:100FD000B47C0100DC7C010000487047205D0020EB
:100FE000704770477047704738B504460A4600207E
:100FF0006946AFF30080002808BF38BD024600995B
:10100000204600F075F8012038BD012000F0A2B89C
:10101000F8B5AFF30080054600200C46102000BF55
:101020000646A819A0420DD9324669460020AFF302
:101030000080070008BF00F08DF80098A04218BF9C
:101040000546C419FFF7C8FF05600746F01D20F0EC
:1010500007004619284600F00AF8B44208BFF8BD58
:10106000A21B31463868BDE8F84000F041B80021C5
:101070000160C0E9011070471020704770B5044648
:10108000051FFFF7A9FF0068002C14BF446870BD5E
:10109000002C18BFAC423CBF20466468F8D30168FE
:1010A0000A18AA4218BF456003D12A6805461144B0
:1010B000016028684119A1421CBF6C6070BD616865
:1010C000696021680844286070BD10B500F00CF814
:1010D000006810BD10B5044600F006F8046010BDAD
:1010E00000487047185D002000487047185D0020D8
:1010F000034640688C46002818BF88423CBF034620
:101100004068F8D318681844884207D00CF10300EF
:1011100020F00700001D411A521A0146081D0A60FE
:10112000FFF7ACBF1FB584B000200A9C06AB04AA31
:1011300002A90094AFF3008018B1DDE9020108B004
:1011400010BD0348204000F040F800200146F6E7BB
:101150000000207C10B500F03FF8BDE8104000F022
:101160002FB870477546FFF7BBFFAE4605006946CE
:10117000534620F00700854618B020B5FFF788F8E1
:10118000BDE820404FF000064FF000074FF0000888
:101190004FF0000B21F00701AC46ACE8C009ACE809
:1011A000C009ACE8C009ACE8C0098D46704710B56D
:1011B0000446AFF300802046BDE81040FFF753B867
:1011C000002801D000F030B8704710B500F04CF89E
:1011D000BDE81040FFF7F4BF10B5012805D000218D
:1011E00003A000F027F8012010BD09A1F8E70000D6
:1011F00053494752544D454D3A204F7574206F6600
:101200002068656170206D656D6F72790000000067
:101210003A2048656170206D656D6F727920636F4B
:10122000727275707465640001491820ABBEFEE7E8
:101230002600020070B505460C460A2000E06D1C31
:1012400000F068F835B128780028F8D102E0641C75
:1012500000F060F814B120780028F8D1BDE87040A3
:101260000A2000F057B8000010B5022803D0410151
:1012700003D50DA112E0002010BD010101D50FA181
:101280000CE0C10001D511A108E0810001D512A137
:1012900004E0400001D513A100E0002115A0FFF7F4
:1012A000C9FF012010BD0000496E76616C696420A1
:1012B0004F7065726174696F6E00000044697669F1
:1012C0006465204279205A65726F00004F7665721E
:1012D000666C6F7700000000556E646572666C6F17
:1012E00077000000496E65786163742052657375FC
:1012F0006C7400005349474650453A204172697466
:10130000686D6574696320657863657074696F6E74
:101310003A20000008B569468DF800000320ABBEF6
:1013200008BD00BFFEE7000010B5024800F0A8FAB3
:1013300010BD00008C05002010B5024800F0A0FA96
:1013400010BD00008C05002010B5024800F098FA8E
:1013500010BD0000B405002010B5024800F090FA5E
:1013600010BD0000B40500202DE9F04104460D46F3
:1013700000260A48D0F8BC72D7F8140210B1012038
:10138000BDE8F0812A462146044805F0F7FB0348F2
:1013900005F090FC06463046F2E70000700C002095
:1013A00010B5024800F00CFE10BD0000500B0020EC
:1013B00010B5024800F004FE10BD00003006002009
:1013C00010B5024800F0FCFD10BD000090060020A2
:1013D00010B5024800F0F4FD10BD0000B00B002075
:1013E00010B5024800F0ECFD10BD000054070020CD
:1013F00010B5024800F0E4FD10BD0000B407002065
:1014000010B5024800F0DCFD10BD0000900A00207D
:1014100010B5024800F0D4FD10BD0000100C0020F3
:1014200010B5024800F0CCFD10BD0000F00A00200D
:10143000704710B5012000F0B9FF10BD10B50820AD
:1014400000F0B4FF10BD10B5102000F0AFFF10BDCC
:1014500010B5202000F0AAFF10BD72B600BFFEE755
:1014600010B5024692F82030012B01D0022B06D194
:1014700010684069084314686061002010BD506A1C
:1014800040F4802050620120F8E7F0B504460D4694
:101490001E4694F8207020688368A86800B900E0B0
:1014A00000BF012F01D0022F7CD103F0806030B942
:1014B00003F0006018B903F08050002873D0C3F324
:1014C0000161022905D9606A40F4000060620120D0
:1014D000F0BD012088403060A86860B9B5F800C050
:1014E000E86840EA4C5C206800F5C07000EB011031
:1014F000C0F800C00FE0D5E901C040EACC00D5F843
:101500000CC040EA0C00D4F800C00CF5C07C0CEB19
:10151000011CCCF80000D5F810C0206800F5C070A0
:1015200000EB0110C0F804C0287D01280ED120680E
:1015300000F5C07000EB0110406840F4807C20682A
:1015400000F5C07000EB0110C0F804C0D0790006AF
:1015500092F806C040EA0C4092F805C040EA0C2C14
:1015600010794CEA000C206800F5C07000EB011007
:10157000C0F80CC0D078000692F802C040EA0C40D7
:1015800092F801C040EA0C2092F800C040EA0C003A
:10159000D4F800C00CF5C07C0CEB011CCCF80800A2
:1015A000206801E016E00FE000F5C07000EB0110CC
:1015B000006840F0010C206800F5C07000EB0110DD
:1015C000C0F800C0002083E7606A40F40010606249
:1015D00001207DE7606A40F480206062012077E7A7
:1015E000F0B504460A46216894F82050012D01D038
:1015F000022D7ED1424901F50071086840F00100DA
:101600000860086820F47C5008600868566A40EA60
:1016100006200860107D00F01F06012000FA06F386
:10162000C8699843C861A1F50071D069C8B9D1F8FB
:101630000C029843C1F80C02908880B2968940EA67
:10164000064601F51070576940F83760108880B27F
:10165000168940EA064601F51070576900EBC7008D
:101660004660D069012819D1D1F80C021843C1F89D
:101670000C02908880B2168840EA064601F5107088
:10168000576940F83760908980B2168940EA06466B
:1016900001F51070576900EBC7004660906928B9E2
:1016A000D1F804029843C1F8040204E0D1F804021E
:1016B0001843C1F80402106928B9D1F814029843FC
:1016C000C1F8140204E0D1F814021843C1F814025E
:1016D000106A012804D1D1F81C021843C1F81C0279
:1016E000D1F8000220F00100C1F800020020F0BD96
:1016F000FFE7606A40F4802060620120F7E70000A5
:1017000000640040704770B5044694F82050012DE5
:1017100001D0022D7DD151B92068C06800F00300CE
:1017200080B9606A40F400106062012070BD2068DA
:10173000006900F0030028B9606A40F4001060629C
:101740000120F3E7206800F5D87000EB0110006875
:1017500000F004009060906840B9206800F5D870EF
:1017600000EB01100068400D106007E0206800F5F4
:10177000D87000EB01100068C0085060206800F5C8
:10178000D87000EB0110006800F00200D060206803
:1017900000F5D87000EB0110406800F00F001061F8
:1017A000206800F5D87000EB0110406800F47F401D
:1017B000000A9061206800F5D87000EB01104068C5
:1017C000000C5061206800F5D87000EB01108068B3
:1017D0001870206800F5D87000EB0110806800F4E4
:1017E0007F40000A5870206800F5D87000EB0110A7
:1017F000806800F47F00000C9870206800F5D870B5
:1018000000EB01108068000ED870206800F5D870D9
:1018100000E02FE000EB0110C0681871206800F5AF
:10182000D87000EB0110C06800F47F40000A5871C6
:10183000206800F5D87000EB0110C06800F47F004C
:10184000000C9871206800F5D87000EB0110C0689A
:10185000000ED87131B92068C06840F020002668B9
:10186000F06005E02068006940F0200026683061E3
:1018700000205BE7606A40F480206062012055E749
:101880002DE9F05F04460025206846692068D0F8FD
:101890000490206887682068D0F80CA02068D0F8F1
:1018A00010B02068D0F8188006F00100002855D04C
:1018B00007F00100C0B101202168886007F0020034
:1018C00018B1204600F00BFB0EE007F0040010B149
:1018D00045F4006508E007F0080010B145F48055B4
:1018E00002E0204600F0FAFA07F48070C8B14FF425
:1018F00080702168886007F4007018B1204600F0FD
:10190000F0FA0EE007F4806010B145F4005508E0ED
:1019100007F4006010B145F4804502E0204600F075
:10192000DFFA07F48030C8B14FF480302168886056
:1019300007F4003018B1204600F0D5FA0EE007F4A5
:10194000802010B145F4004508E007F4002010B1F4
:1019500045F4803502E0204600F0C4FA06F00800A5
:1019600038B10AF0100020B145F40075102021684C
:10197000C86006F0040040B10AF0080028B1082051
:101980002168C860204600F01DFA06F0020038B158
:101990002068C06800F0030010B1204600F014FA7F
:1019A00006F0400038B10BF0100020B145F480651E
:1019B00010202168086106F0200040B10BF00800FB
:1019C00028B1082021680861204600F029FA06F0B5
:1019D000100038B12068006900F0030010B1204603
:1019E00000F020FA06F4003040B109F0100028B1F0
:1019F000102021684860204600F040FA06F480304C
:101A000040B109F0080028B108202168486020464C
:101A100000F06AFA06F4004088B309F0040078B3D5
:101A200006F4807020B108F0010008B145F001050E
:101A300006F4007020B108F0020008B145F002057C
:101A400006F4806020B108F0040008B145F00405F8
:101A500006F40060A0B108F0700088B108F07000D2
:101A6000402817D006DC10280BD020280CD03028B6
:101A700019D10CE0502810D0602814D110E01DE0DE
:101A800019E045F008050FE045F010050CE045F0C1
:101A9000200509E045F0400506E045F0800503E03B
:101AA00045F4807500E000BF00BF2068806920F029
:101AB0007000216888610420216848602DB1606A47
:101AC000284360622046FFF71DFEBDE8F09F70B519
:101AD00004460CB9012070BD94F8200010B92046CE
:101AE00000F0B0F82068006840F00100216808604C
:101AF00000F072FD05460DE000F06EFD401B0A2867
:101B000008D9606A40F400306062052084F8200043
:101B10000120E0E72068406800F001000028EBD0D9
:101B20002068006820F002002168086000F054FD81
:101B300005460DE000F050FD401B0A2808D9606AF8
:101B400040F400306062052084F820000120C2E7E4
:101B50002068406800F002000028EBD1207E0128B8
:101B600006D12068006840F080002168086005E028
:101B70002068006820F0800021680860607E0128ED
:101B800006D12068006840F040002168086005E048
:101B90002068006820F0400021680860A07E0128CD
:101BA00006D12068006840F020002168086005E048
:101BB0002068006820F0200021680860E07E01288D
:101BC00006D12068006820F010002168086005E058
:101BD0002068006840F0100021680860207F01281C
:101BE00006D12068006840F008002168086005E020
:101BF0002068006820F0080021680860607F0128E4
:101C000006D12068006840F004002168086005E003
:101C10002068006820F0040021680860D4E902010F
:101C2000084321690843616908436168491E084304
:101C30002168C86100206062012084F82000002033
:101C400049E7000010B586B00446142101A8FFF74B
:101C500086F956492068884249D155480068401C99
:101C6000534908600846006801280FD100BF0020D2
:101C700000905048006840F000704E4908600846E7
:101C8000006800F00070009000BF00BF00BF00209F
:101C9000009048481038006840F008004549103965
:101CA00008600846006800F00800009000BF00BF10
:101CB0000320019002200290002003900320049052
:101CC0000920059001A93C4800F07EFB0022114646
:101CD000142001F0C7F8142001F0B4F800221146D6
:101CE000152001F0BFF8152001F0ACF85CE0334995
:101CF0002068884258D100BF002000902D4800681D
:101D000040F080602B4908600846006800F0806061
:101D1000009000BF00BF26480068401C24490860AE
:101D20000846006801280FD100BF0020009021481C
:101D3000006840F000701F4908600846006800F025
:101D40000070009000BF00BF00BF00200090194845
:101D50001038006840F00200164910390860084643
:101D6000006800F00200009000BF00BF60200190FA
:101D70000220029000200390032004900920059087
:101D800001A90F4800F020FB00221146402001F07D
:101D900069F8402001F056F800221146412001F078
:101DA00061F8412001F04EF806B010BD006400401B
:101DB0000000002040380240000C02400068004053
:101DC000000402407047000010B504461049206826
:101DD00088420CD10F4BA3F11C0200212046FFF7D3
:101DE00092FC0C482038816A001D88470FE00A49A0
:101DF000206888420BD1094BA3F11C020021204628
:101E0000FFF781FC05482038816A001D884710BD16
:101E1000006400409C2A002000680040C82A00207E
:101E20007047000010B504461049206888420CD164
:101E30000F4BA3F11C0201212046FFF764FC0C4864
:101E40002038816A001D88470FE00A4920688842CF
:101E50000BD1094BA3F11C0201212046FFF753FCD3
:101E600005482038816A001D884710BD0064004085
:101E70009C2A002000680040C82A0020704770B5E6
:101E8000044694F82000012822D1022084F8200082
:101E90002068006820F001002168086000F09CFBC9
:101EA00005460DE000F098FB401B0A2808D9606A3F
:101EB00040F400306062052084F82000012070BDED
:101EC0002068406800F001000028EBD16062F6E76E
:101ED000606A40F4002060620120F0E770477047BC
:101EE0007047704770477047704770B50446A56DDE
:101EF00000F072FB064694F83500022808D08020D6
:101F0000606500BF002084F8340000BF012070BD70
:101F10002068006820F01600216808602068406989
:101F200020F0800021684861206C08B9A06C28B1BD
:101F30002068006820F008002168086020680068B8
:101F400020F001002168086010E000F045FB801BD4
:101F500005280BD920206065032084F8350000BFD8
:101F6000002084F8340000BF0320D0E72068006818
:101F700000F001000028E8D194F85C103F20884070
:101F8000A860012084F8350000BF002084F83400E8
:101F900000BF00BFBBE7014691F83500022803D01F
:101FA0008020486501207047052081F835000868C9
:101FB000006820F001000A6810600020F3E70000CC
:101FC000F8B50446002000908C4800684FF4165184
:101FD000B0FBF1F7A56D2E6894F85C1008208840DE
:101FE000304098B12068006800F0040070B12068AB
:101FF000006820F004002168086094F85C10082054
:102000008840A860606D40F00100606594F85C1045
:1020100001208840304068B12068406900F08000AD
:1020200040B194F85C1001208840A860606D40F0D9
:102030000200606594F85C1004208840304068B16C
:102040002068006800F0020040B194F85C100420A1
:102050008840A860606D40F00400606594F85C10F2
:1020600010208840304078B32068006800F00800F5
:1020700050B394F85C1010208840A8602068006875
:1020800000F4802080B12068006800F4002028B9A6
:10209000206CC8B12046216C884715E0A06C98B12F
:1020A0002046A16C88470FE02068006800F480702B
:1020B00028B92068006820F0080021680860206CBA
:1020C00010B12046216C884794F85C10202088408D
:1020D0003040002865D02068006800F0100000281B
:1020E0005FD094F85C1020208840A86094F83500F8
:1020F000052828D12068006820F0160021680860B3
:102100002068406920F0800021684861206C08B98F
:10211000A06C28B12068006820F0080021680860E1
:1021200094F85C103F208840A860012084F83500B6
:1021300000BF002084F8340000BF206D10B120469D
:10214000216D8847F8BD2068006800F4802080B1C8
:102150002068006800F4002028B9606C10B12046A7
:10216000616C88471DE0E06BD8B12046E16B884781
:1021700017E02068006800F4807068B92068006883
:1021800020F0100021680860012084F8350000BFAD
:10219000002084F8340000BFE06B10B12046E16BF2
:1021A0008847606D38B3606D00F00100F0B1052024
:1021B00084F835002068006820F00100216808607C
:1021C00000BF0098401C0090B84200D905E020688C
:1021D000006800F001000028F3D100BF012084F85E
:1021E000350000BF002084F8340000BFE06C10B15F
:1021F0002046E16C884700BFA4E7000008000020EB
:102200002DE9F0410446002500F0E6F9074614B92F
:102210000120BDE8F081606A00B100BF022084F8AF
:10222000350000BF002084F8340000BF206800683B
:1022300020F00100216808600AE000F0CDF9C01B21
:10224000052805D920206065032084F83500E0E7E3
:102250002068006800F001000028EED120680568C1
:1022600021480540D4E901010843E1680843216998
:10227000084361690843A1690843E1690843216A89
:1022800008430543606A042803D1D4E90B010843DD
:102290000543206805602068456925F00705606AE8
:1022A0000543606A04280DD1A06A0543E06A48B17D
:1022B00020460EF0E7FE28B140206065012084F83A
:1022C0003500A6E72068456120460EF031FF06463E
:1022D00094F85C103F208840B060002060650120C9
:1022E00084F83500002094E73F8010F02DE9F04796
:1022F00004460D4616461F464FF00008D4F8589085
:1023000000BF94F83400012802D10220BDE8F08714
:10231000012084F8340000BF94F83500012825D14D
:10232000022084F83500002060653B46324629468D
:1023300020460EF091FE94F85C103F208840C9F8CA
:1023400008002068006840F0160021680860206CD2
:1023500028B12068006840F0080021680860206803
:10236000006840F001002168086006E000BF00201E
:1023700084F8340000BF4FF002084046C6E7000072
:1023800070B5044600F028F906462546681C10B1D1
:1023900004480078054400BF00F01EF9801BA842E5
:1023A000FAD370BD140000207047000010B5044639
:1023B00004480068204020B1024804602046FFF72E
:1023C000F3FF10BD143C0140F8B502460B46002552
:1023D000002400200021D5E0012606FA01F51E6840
:1023E00006EA0504AC4274D11E7906F00306012EFC
:1023F00004D01E7906F00306022E13D190684F0018
:102400000326BE40B0434F00DE68BE4030439060BC
:10241000506801268E40B0431E79C6F300168E40E8
:10242000304350601E7906F00306032E09D0D068B1
:102430004F000326BE40B0434F009E68BE4030436D
:10244000D0601E7906F00306022E13D1CF0802F1E8
:10245000200656F827004E07F70E0F26BE40B04361
:102460004F07FF0E1E69BE403043CF0802F1200621
:1024700046F8270010684F000326BE40B0431E797F
:1024800006F003064F00BE40304310605E6806F45D
:102490004036002E75D000BF002600963B4E3668B1
:1024A00046F48046394F3E603E46366806F4804624
:1024B000009600BF00BF364E8F0856F827008E07E3
:1024C000370F0F26BE40B043324EB24202D1002633
:1024D00024E056E0304EB24201D101261EE02F4EDC
:1024E000B24201D1022619E02D4EB24201D103269B
:1024F00014E02C4EB24201D104260FE02A4EB24223
:1025000001D105260AE0294EB24201D1062605E096
:10251000274EB24201D1072600E008268F073F0F61
:10252000BE4030431A4E8F0846F82700214E3068CF
:10253000A0435E6806F4803606B120431D4E30602D
:10254000361D3068A0435E6806F4003606B12043AD
:10255000184E361D3060361D3068A0435E6806F4A4
:10256000801606B12043134E08363060361D3068A1
:10257000A0435E6806F4001606B120430D4E0C36EB
:102580003060491C1029FFF427AFF8BD44380240E1
:1025900008380140000002400004024000080240E8
:1025A000000C0240001002400014024000180240DB
:1025B000001C0240003C014010B5426921EA0203C0
:1025C00002EA010443EA0443836110BD0AB1816158
:1025D00001E00B0483617047014800687047000008
:1025E0000C00002070B504460CB9012070BD94F8B1
:1025F0003D0028B9002084F83C00204600F006FB8E
:10260000242084F83D002068006820F00100216843
:1026100008602068006840F4004021680860206875
:10262000006820F400402168086001F043FB054683
:102630005C496068884206D85B48854201D2012027
:1026400007E0002005E05948854201D2012000E062
:102650000020012800D1C9E75548B5FBF0F62068F5
:10266000406820F03F003043216848604D49606871
:10267000884201D8701C07E04FF4967070434FF405
:102680007A71B0FBF1F0401C2168096A21F03F012A
:1026900008432168086243496068884214D8681E6C
:1026A00061684900B0FBF1F0401CC0F30B00042846
:1026B00001D204203DE0681E61684900B0FBF1F0E2
:1026C000401CC0F30B0034E0A06838B9681E616894
:1026D00001EB4101B0FBF1F0401C0AE0681E6168AB
:1026E00001EBC10202EB0111B0FBF1F0401C40F420
:1026F0008040C0F30B0008B901201AE0A06848B977
:10270000681E616801EB4101B0FBF1F0401CC0F3B1
:102710000B000CE0681E616801EBC10202EB0111C5
:10272000B0FBF1F0401CC0F30B0040F4804040F4DB
:1027300000402168C9694CF6FF7291430843216843
:10274000C861D4E9070108432168096821F0C00184
:10275000084321680860D4E90310084321688968A8
:1027600048F2FF329143084321688860D4E90501AB
:1027700008432168C96821F0FF0108432168C86047
:102780002068006840F00100216808600020206493
:10279000202084F83D000020206384F83E0000BF24
:1027A00024E70000A086010080841E0000093D008F
:1027B00040420F002DE9FC5F04460F4690469946C3
:1027C000DDE90CAB0E9EFFF707FF054694F83D00D0
:1027D000202870D119230122B049204600950EF01F
:1027E00000FE10B10220BDE8FC9F00BF94F83C0041
:1027F000012801D10220F6E7012084F83C0000BF47
:102800002068006800F0010028B92068006840F0E6
:102810000100216808602068006820F400602168D9
:102820000860222084F83D00402084F83E0000200B
:102830002064C4F824A0A4F82AB0608D20859848AC
:10284000E0624B46424639462046CDE900650EF02F
:1028500089FC08B10120C6E7208D88B900BF00209F
:10286000019020684069019020688069019000BF54
:1028700000BF2068006840F400702168086040E0F4
:10288000208D012818D12068006820F4806021681C
:10289000086000BF00200190206840690190206816
:1028A0008069019000BF00BF2068006840F400709C
:1028B0002168086025E0EFE0208D022816D120680D
:1028C000006820F48060216808602068006840F497
:1028D00000602168086000BF002001902068406906
:1028E000019020688069019000BF0AE000BF0020CD
:1028F000019020684069019020688069019000BFC4
:1029000000BFBAE0208D03287ED8208D012815D184
:102910002A46314620460EF003FE08B1012062E748
:1029200020680069616A0870606A401C6062208DDE
:10293000401E2085608D401E60859EE0208D02280F
:102940002AD1334600225749204600950EF049FD12
:1029500008B1012047E72068006840F40070216852
:10296000086020680069616A0870606A401C6062E3
:10297000208D401E2085608D401E60852068006986
:10298000616A0870606A401C6062208D401E20856C
:10299000608D401E608570E033460022414920462C
:1029A00000950EF01EFD08B101201CE720680068AC
:1029B00020F480602168086020680069616A0870FE
:1029C000606A401C6062208D401E2085608D401E24
:1029D0006085334600223349204600950EF001FD04
:1029E00008B10120FFE62068006840F4007021680B
:1029F000086020680069616A0870606A401C606253
:102A0000208D401E208500E010E0608D401E608516
:102A100020680069616A0870606A401C6062208DED
:102A2000401E2085608D401E608526E02A46314686
:102A300020460EF075FD08B10120D4E6206800693B
:102A4000616A0870606A401C6062208D401E2085AB
:102A5000608D401E608520684069C0F3800060B1D1
:102A600020680069616A0870606A401C6062208D9D
:102A7000401E2085608D401E6085208D00287FF4DB
:102A800041AF202084F83D00002084F83E0000BFC4
:102A900084F83C0000BFA6E60220A4E60200100075
:102AA0000000FFFF040001002DE9FC5F04460F4613
:102AB00090469946DDE90CAB0E9EFFF78DFD05466D
:102AC00094F83D0020287DD1192301224D4920464C
:102AD00000950EF086FC10B10220BDE8FC9F00BFFF
:102AE00094F83C00012801D10220F6E7012084F887
:102AF0003C0000BF2068006800F0010028B9206891
:102B0000006840F00100216808602068006820F437
:102B1000006021680860212084F83D00402084F88E
:102B20003E0000202064C4F824A0A4F82AB0608DE0
:102B300020853548E0624B46424639462046CDE97D
:102B400000650EF0BFFB08B10120C6E731E02A4660
:102B5000314620460EF0B6FC50B1206C042805D159
:102B60002068006840F40070216808600120B4E724
:102B7000606A007821680861606A401C6062208D8C
:102B8000401E2085608D401E608520684069C0F32E
:102B9000800070B1208D60B1606A007821680861A2
:102BA000606A401C6062208D401E2085608D401E42
:102BB0006085208D0028CAD12A46314620460EF075
:102BC00053FC00E01CE050B1206C042805D12068C3
:102BD000006840F400702168086001207DE72068EB
:102BE000006840F4007021680860202084F83D00EF
:102BF000002084F83E0000BF84F83C0000BF6CE772
:102C000002206AE7020010000000FFFF10B586B046
:102C10000446142101A8FEF7A2F949492068884218
:102C20007ED100BF002000904648006840F00400BC
:102C3000444908600846006800F00400009000BFA6
:102C400000BF00BF002000900846006840F001006F
:102C500008600846006800F00100009000BF00BF57
:102C60004815019012200290012003900320049047
:102C70000420059001A93448FFF7A6FB4FF48070AB
:102C80000190122002900120039003200490042060
:102C9000059001A92D48FFF797FB00BF0020009089
:102CA00028481030006840F40000264910310860C0
:102CB0000846006800F40000009000BF00BF2448F0
:102CC000244908604FF0C0604860002121488160BD
:102CD000C1604FF480610161002141618161C16186
:102CE00001624162FFF78CFA08B1FEF7B6FB00BF44
:102CF0001848A063846300BF154830301649086047
:102D00004FF0C06048604021134881600021C160DD
:102D10004FF480610161002141618161C16100E086
:102D20000BE001624162FFF76BFA08B1FEF795FB19
:102D300000BF09486063846300BF06B010BD000097
:102D4000005C0040303802400008024000000240B1
:102D500040600240300600209006002003480068D2
:102D60000349097808440149086070470C000020B5
:102D70001400002010B50D48006840F400700B49A5
:102D800008600846006840F48060086008460068F3
:102D900040F480700860032000F0A2F80F2000F0DB
:102DA00007F800F02BF8002010BD0000003C0240A6
:102DB00070B504460E4800784FF47A71B1FBF0F01C
:102DC0000C490968B1FBF0F5284601F06CFD08B12B
:102DD000012070BD102C07D200222146501E00F0A9
:102DE00041F80548046001E00120F2E70020F0E727
:102DF00014000020080000201000002008B500BFCB
:102E0000002000900E48006840F480400C490860A3
:102E10000846006800F48040009000BF00BF00BF7B
:102E200000200090081F006840F08050091F0860D3
:102E30000846006800F08050009000BF00BF08BD49
:102E40004438024001460846002809DB00F01F0311
:102E500001229A4043099B0003F1E023C3F80021BB
:102E600000BF70472DE9F05F80460D4616460027EB
:102E70000FF090FA074639462A46334601F007001C
:102E8000C0F1070ABAF1040F02D94FF0040A01E0B9
:102E9000C0F1070AD14600F1040ABAF1070F02D2C5
:102EA0004FF0000A01E0A0F1030AD4464FF0010AF6
:102EB0000AFA09FAAAF1010A0AEA020A0AFA0CFA5B
:102EC0004FF0010B0BFA0CFBABF1010B0BEA030B00
:102ED0004AEA0B04214640460FF048FABDE8F09F4D
:102EE00000BF00F00702064B19684FF6FF031940B8
:102EF000044B0B4343EA0221014B196000BF7047AA
:102F00000CED00E00000FA057047024610684162CF
:102F100000207047F0B5034615461868446A21B989
:102F200044EA05401E68B06219E01868806A04EB44
:102F30001044002208E0186800F5827050F8220062
:102F400004EB1044501CC2B2481E9042F3D844EA2D
:102F50000547186800F582704E1E40F82670002064
:102F6000F0BD10B50446D4F8040404F06DF810BDAB
:102F700070B504460D46C5EBC50304F13C0101EBF9
:102F80008301CA682946D4F8040403F0A5FF70BD84
:102F900070B504460D46C5EBC50304F5FE7101EBA3
:102FA0008301CA682946D4F8040404F006F870BD09
:102FB00010B50446D4F8040404F049F810BD70B507
:102FC00004460E4606F0800080280AD106F00F0065
:102FD000C0EBC00104F13C0000EB810501206870EA
:102FE00009E006F00F00C0EBC00104F5FE7000EB35
:102FF00081050020687006F00F00287000BF94F86B
:10300000BC03012801D1022070BD012084F8BC035B
:1030100000BF2946206804F089FC00BF002084F826
:10302000BC0300BF00BFEFE770B504460E4606F0D4
:103030000F006168884201D9012070BD06F0800050
:1030400080280AD106F00F00C0EBC00104F13C005B
:1030500000EB81050120687009E006F00F00C0EB6D
:10306000C00104F5FE7000EB8105002068700020AF
:10307000A87006F00F00287000BF94F8BC03012868
:1030800001D10220D9E7012084F8BC0300BF294602
:10309000206804F031FF00BF002084F8BC0300BFAB
:1030A00000BFCAE7024601F00F00C0EBC00302F503
:1030B000FE7000EB8300806970472DE9F0470546FC
:1030C0000E4690461F464FF0000906F0800080280B
:1030D0000AD106F00F00C0EBC00105F13C0000EB87
:1030E00081040120607009E006F00F00C0EBC00110
:1030F00005F5FE7000EB81040020607006F00F0003
:103100002070C4F80880E770607808B12078E0800B
:10311000022F01D10020207100BF95F8BC030128C7
:1031200002D10220BDE8F087012085F8BC0300BF72
:103130002146286804F03CFB00BF002085F8BC0352
:1031400000BF4846EEE72DE9F04104460E4617461B
:10315000984606F00F00C0EBC00104F5FE7000EBCE
:103160008105EF60C5F814800020A861687006F042
:103170000F0028702069012800D12F6106F00F0090
:1031800028B9227C2946206804F092FD04E0227CC4
:103190002946206804F044FF0020BDE8F08170B5A6
:1031A00004460D4605F00F006168884201D90120F0
:1031B00070BD05F0800080280AD105F00F00C0EB3B
:1031C000C00104F13C0000EB81060120707007E0B3
:1031D000C5EBC50104F5FE7000EB810600207070A0
:1031E0000120B07005F00F00307000BF94F8BC03F0
:1031F000012801D10220DBE7012084F8BC0300BFD5
:103200003146206804F0BFFE05F00F0028B9217C8C
:1032100004F57172206804F037FE00BF002084F8C6
:10322000BC0300BF00BFC3E72DE9F04104460E46D2
:103230001746984606F00F00C0EBC00104F13C00B1
:1032400000EB8105EF60C5F814800020A861012023
:10325000687006F00F0028702069012800D12F61E6
:1032600006F00F0028B9227C2946206804F020FDD2
:1032700004E0227C2946206804F0D2FE0020BDE84C
:10328000F0812DE9FE4F044620680290029D2068DF
:1032900005F0B5F800287DD1206805F0EFF808B9F1
:1032A000BDE8FE8F206805F0E9F800F00200022872
:1032B00005D12068406900F002002168486120685B
:1032C00005F0DCF800F01000102846D12068806975
:1032D00020F01000216888610298D0F8209009F051
:1032E0000F00C0EBC00104F5FE7000EB810AC9F3CA
:1032F000434002281AD147F6F07009EA000030B3C3
:10330000C9F30A12DAF80C10029805F0BCF8C9F3F8
:103310000A11DAF80C000844CAF80C00C9F30A11C3
:10332000DAF818000844CAF8180010E0C9F343405E
:1033300006280CD1082204F57171029805F0A3F853
:10334000C9F30A11DAF818000844CAF8180020680E
:10335000806940F0100021688861206805F08EF8CF
:1033600000F40020B0F5002F52D10026206805F0AF
:1033700055F8834649E00BF00100E8B3F1B220684C
:1033800005F06FF8804608F0010058B1012105F5FD
:10339000306000E021E200EB4610816031462046BB
:1033A0000EF0EEF908F00800082809D1082105F50B
:1033B000306000EB46108160314620460EF0AEF9D9
:1033C00008F01000102805D1102105F5306000EB41
:1033D0004610816008F02000202805D1202105F545
:1033E000306000EB4610816008F40050B0F5005FDB
:1033F00008D14FF4005100E004E005F5306000EB27
:1034000046108160761C4FEA5B0BBBF1000FB2D116
:10341000206805F033F800F48020B0F5802F7ED1CD
:10342000206804F0F1FF8346002683E00BF00100E2
:1034300000287CD0F1B2206804F0FAFF804608F042
:103440000100F0B306F00F0101208840019040F622
:1034500034004159019821EA000040F634014851F6
:10346000012105F5106000EB4610816020690128FC
:1034700024D1C6EBC60104F13C0000EB8100C6EB91
:10348000C602C16804F13C0000EB82008068014480
:10349000C6EBC60204F13C0000EB8200C1606EB9CD
:1034A000C6EBC60104F13C0000EB8100406928B97D
:1034B00004F571720121206804F0E6FCF1B22046A7
:1034C00000E001E0FFF754FD08F00800082805D1EE
:1034D000082105F5106000EB4610816008F010002F
:1034E000102805D1102105F5106000EB4610816011
:1034F00008F04000402805D1402105F5106000EBA0
:103500004610816008F00200022805D1022105F56D
:10351000106000EB4610816008F0800001E00DE0D3
:1035200005E0802803D1314620460EF09BF8761C3A
:103530004FEA5B0BBBF1000F7FF478AF206804F01B
:103540009DFF00F00040B0F1004F1CD140F6040098
:10355000405920F0010140F60400415194F8F40371
:10356000012807D1002084F8F40300212046FFF74A
:10357000CBFC02E0204600F063FA2068406900F0CE
:10358000004021684861206804F078FF00F4006082
:10359000B0F5006F0ED140F60800405900F0010070
:1035A00010B1204600F0A4FA2068406900F40060E1
:1035B00021684861206804F061FF00F48050B0F594
:1035C000805F7DD140F60400405920F0010140F6B3
:1035D000040041511021206804F0E4FE00273EE081
:1035E0004FF67F3105F5106000EB4710816005F55F
:1035F000106000EB4710006820F4001105F5106022
:1036000000EB4710016005F5106000EB4710006803
:1036100040F0006105F5106000EB471001604FF6C7
:103620007F3105F5306000EB4710816005F53060B3
:1036300000EB4710006820F4001105F5306000EB46
:103640004710016005F5306000EB4710006840F05E
:10365000006105F5306000EB471001607F1C606879
:10366000B842BDD840F61C00405940F0011140F668
:103670001C004151206B70B1D5F8840840F00B015B
:10368000C5F8841840F64400405940F00B0140F65C
:10369000440041510FE040F61400405942F22B0122
:1036A000084340F614014851081F405940F00B01EF
:1036B0004FF401604151D5F8000820F4FE6000E0AD
:1036C0000DE0C5F80008217C04F57172206804F053
:1036D000DBFB2068406900F4805021684861206865
:1036E00004F0CCFE00F40050B0F5005F17D1206864
:1036F00004F0C6F8206804F06FFEE06000F0D4FA31
:103700000090227B2068009904F040FF204600F0E2
:103710007FF92068406900F4005021684861206802
:1037200004F0ACFE00F00800082808D1204600F0A4
:103730008EF92068406900F008002168486120681F
:1037400004F09CFE00F48010B0F5801F0AD1002622
:103750003146204600F043F82068406900F48010AC
:1037600021684861206804F089FE00F40010B0F57B
:10377000001F0AD100263146204600F039F82068A3
:10378000406900F4001021684861206804F076FE6A
:1037900000F08040B0F1804F08D12046FFF7E1FBF8
:1037A0002068406900F0804021684861206804F08A
:1037B00065FE00F0040004280FD12068D0F80490C2
:1037C00009F00400042802D12046FFF7F1FB20682D
:1037D000406840EA09002168486000BF60E570B5B4
:1037E00004460D462946D4F8040403F099FC70BD44
:1037F00070B504460D462946D4F8040403F0A8FC2D
:1038000070BD70B58AB0044614B901200AB070BD0D
:10381000266894F8BD0328B9002084F8BC0320462C
:1038200000F0A2F8032084F8BD03F06B00F4807070
:1038300008B900212161206804F032FA282204F13D
:1038400010016846FDF737FB94E80F0004F02CF8F0
:1038500020B1022084F8BD030120D7E700212068B1
:1038600004F041FE002531E00121C5EBC50204F161
:103870003C0000EB82004170C5EBC50104F13C0047
:1038800000F82150C5EBC50100EB8100C580002187
:10389000C5EBC50204F13C0000EB8200C170C5EB32
:1038A000C50204F13C0000EB82008160C5EBC5025B
:1038B00004F13C0000EB8200C160C5EBC50204F1DD
:1038C0003C0000EB82004161681CC5B26068A84200
:1038D000CAD800252AE00021C5EBC50204F5FE7018
:1038E00000EB82004170C5EBC50104F5FE7000F8E5
:1038F00021500021C5EBC50200EB8200C170C5EB71
:10390000C50204F5FE7000EB82008160C5EBC502C4
:1039100004F5FE7000EB8200C160C5EBC50204F542
:10392000FE7000EB82004161681CC5B26068A8426D
:10393000D1D8282204F110016846FDF7BCFA94E8BA
:103940000F0004F0BDF820B1022084F8BD0301206F
:103950005CE7002084F83800012084F8BD0320686B
:1039600004F09CF8002051E710B586B004461421FD
:1039700001A8FDF7F4FA2068B0F1A04F42D100BFD2
:10398000002000902048006840F001001E490860B7
:103990000846006800F00100009000BF00BF4FF42F
:1039A000C050019002200290002003900320049058
:1039B0000A20059001A91548FEF706FD00BF124830
:1039C000001D006840F080000F49091D086000BF1D
:1039D000002000900C481430006840F480400A49F0
:1039E000143108600846006800F48040009000BF71
:1039F00000BF00BF002211464320FFF733FA4320E7
:103A0000FFF720FA06B010BD303802400000024037
:103A100070B504460125E06808B9002506E0E068B5
:103A2000022801D1012501E0FDF717FD2946D4F850
:103A3000040403F02CFCD4F8040403F0D1FB70BDA3
:103A400010B50446D4F8040403F000FC10BD10B512
:103A50000446D4F8040403F004FC10BD70B5044619
:103A60000D4600BF94F8BC03012801D1022070BDAF
:103A7000012084F8BC0300BF84F838502946206830
:103A800004F065FD00BF002084F8BC0300BF00BF48
:103A9000EDE710B5044604F57171D4F8040403F0A1
:103AA0000DFC10BD70B50446256800BF94F8BC033A
:103AB000012801D1022070BD012084F8BC0300BFA1
:103AC000A06A012806D1A069012803D0A86B40F4A0
:103AD0008030A863206804F045FC206803F0CCFF28
:103AE00000BF002084F8BC0300BF00BFE3E7000074
:103AF00010B50446D4F8040403F03DFC2068D0F867
:103B0000000E40F001002168C1F8000E206A28B1C3
:103B10000348006840F006000149086010BD00003D
:103B200010ED00E070B504460D460CB9012070BDE3
:103B30005848006800F00700A84209D255490D70A6
:103B40000846006800F00700A84201D00120EEE717
:103B5000207800F0020002281DD1207800F0040037
:103B6000042805D14C48006840F4E0504A490860F8
:103B7000207800F00800082805D14748006840F484
:103B80006040454908604448006820F0F000A168A2
:103B9000084341490860207800F00100A8B360683C
:103BA000012807D13C4808380068C0F34040B8B944
:103BB0000120BCE76068022802D06068032807D1B2
:103BC000354808380068C0F3406048B90120AEE7C6
:103BD000314808380068C0F3400008B90120A6E762
:103BE0002D48006820F00300616808432A490860F6
:103BF000FEF7F2FC064609E0FEF7EEFC801B41F200
:103C00008831884202D9032091E707E02248006802
:103C100000F00C006168B0EB810FEDD11D48006829
:103C200000F00700A84209D91A490D70084600683B
:103C300000F00700A84201D0012078E7207800F0CA
:103C40000400042807D11448006820F4E050E1681B
:103C5000084311490860207800F00800082808D1BE
:103C60000D48006820F46040216940EAC1000A491B
:103C7000086000F03FF808490968C1F30311074ADA
:103C8000515CC8400649086006480068FFF790F894
:103C900000204CE7003C024008380240987B0108B5
:103CA0000800002010000020014800687047000054
:103CB0000800002000B5FFF7F7FF04490968C1F3C9
:103CC0008221034A515CC84000BD00000838024010
:103CD000A87B010800B5FFF7E7FF04490968C1F3B5
:103CE0004231034A515CC84000BD00000838024020
:103CF000A87B01082DE9F047002400250026A146F5
:103D00002548006800F00C0020B1042805D00828E0
:103D10003AD105E0DFF8849039E0DFF8849036E0AE
:103D20001D48001F006800F03F041B48001F00688A
:103D300000F4800078B11A481749091F0968C1F3D7
:103D40008811A0FB01700146224600233846FCF78B
:103D5000F6FF05460EE011480F49091F0968C1F337
:103D60008811A0FB01700146224600233846FCF76B
:103D7000E6FF05460848001F0068C0F30140401CEC
:103D80004600B5FBF6F902E0DFF8109000BF00BF77
:103D90004846BDE8F0870000083802400024F400DF
:103DA000001BB700F8B504460CB90120F8BD207817
:103DB00000F00100002874D0F948006800F00C0001
:103DC00004280DD0F648006800F00C00082813D134
:103DD000F348001F006800F48000B0F5800F0BD19D
:103DE000EF4808380068C0F34040002859D06068A8
:103DF000002856D10120D9E700BF6068B0F5803FA8
:103E000008D1E7480838006840F48030E4490839B0
:103E100008601EE06068B0F5A02F0DD1E0480838BA
:103E2000006840F48020DE490839086008460068D0
:103E300040F4803008600CE0D9480838006820F46D
:103E40008030D749083908600846006820F480208F
:103E5000086000BF606890B1FEF7BEFB054606E053
:103E6000FEF7BAFB401B642801D903209EE7CC482B
:103E700008380068C0F340400028F1D011E0FEF798
:103E8000ABFB054606E0FEF7A7FB401B642801D903
:103E900003208BE7C24808380068C0F34040002880
:103EA000F1D1207800F0020002285FD1BC48006800
:103EB00000F00C0058B1BA48006800F00C00082867
:103EC0001CD1B748001F006800F48000B0B9B448A6
:103ED00008380068C0F3400020B1E068012801D034
:103EE000012063E7AE480838006820F0F800216937
:103EF00040EAC100AA490839086037E0E06800B329
:103F00000120A8490860FEF767FB054606E0FEF7BA
:103F100063FB401B022801D9032047E7A04808386B
:103F20000068C0F340000028F1D09D4808380068C0
:103F300020F0F800216940EAC10099490839086079
:103F400014E0002097490860FEF746FB054606E0AE
:103F5000FEF742FB401B022801D9032026E79048C8
:103F600008380068C0F340000028F1D1207800F044
:103F7000080008282CD16069A8B101208A4908608E
:103F8000FEF72AFB054606E0FEF726FB401B02284B
:103F900001D903200AE782486C300068C0F3400072
:103FA0000028F1D014E000207F490860FEF714FBE0
:103FB000054606E0FEF710FB401B022801D903204E
:103FC000F4E677486C300068C0F340000028F1D177
:103FD000207800F00400042870D1002770483830A1
:103FE000006800F0805090B900BF002000906C483D
:103FF0003830006840F08050694938310860084620
:10400000006800F08050009000BF00BF01276748A3
:10401000006800F48070B0B96448006840F48070B3
:1040200062490860FEF7D8FA054606E0FEF7D4FAC2
:10403000401B022801D90320B8E65C48006800F460
:1040400080700028F2D000BFA068012808D1544831
:104050006830006840F001005149683108601DE097
:10406000A06805280DD14E486830006840F0040073
:104070004B49683108600846006840F0010008605C
:104080000CE047486830006820F00100444968317E
:1040900008600846006820F00400086000BFA068BF
:1040A000A8B1FEF799FA054609E0FEF795FA401B1C
:1040B00041F28831884202D9032077E626E0384869
:1040C00068300068C0F340000028EED013E0FEF72F
:1040D00083FA054608E0FEF77FFA401B41F288317B
:1040E000884201D9032061E62D4868300068C0F39A
:1040F00040000028EFD1012F07D12948383000684F
:1041000020F0805026493831086000BFA06900289F
:1041100045D02348006800F00C0008285DD0A06955
:10412000022845D100201F490866FEF755FA0546CA
:1041300006E0FEF751FA401B022801D9032035E6BC
:10414000174808380068C0F340600028F1D1D4E96E
:1041500007010843616A40EA81110122A06AC2EBAB
:10416000500041EA00412C20005D41EA00600C490A
:10417000091F086001200B490866FEF72DFA054665
:1041800006E0FEF729FA401B022801D903200DE6BC
:10419000034808380068C0F340600028F1D049E0C7
:1041A0000838024000004742800E4742007000403D
:1041B000002021490866FEF70FFA054606E0FEF7E3
:1041C0000BFA401B022801D90320EFE51B480068C9
:1041D000C0F340600028F2D12CE0A069012800D192
:1041E000E4E51648001D0668A069012820D006F401
:1041F0008001E06981421BD106F03F01206A8142C3
:1042000016D147F6C0703040616AB0EB811F0FD104
:1042100006F440310122A06AC2EB5000B1EB004F1E
:1042200006D106F070612C20005DB1EB006F01D06B
:104230000120BBE50020B9E50000474200380240FC
:10424000704710B504460CB9012010BD606A38B93A
:104250006068B0F5827F00D105E00021E16102E0F5
:104260000021216161610021A16294F8510028B907
:10427000002084F85000204600F048F8022084F81E
:1042800051002068006820F0400021680860A08884
:1042900000F48270218901F404410843A18901F4EA
:1042A00000610843217C01F002010843217D01F0F7
:1042B00001010843218B01F400710843217F01F0C3
:1042C000380108432021095D01F080010843218D58
:1042D00001F400510843216808600421A06901EA43
:1042E000104094F8241001F0100108432168486040
:1042F0002068C06920F400602168C8610020606502
:10430000012084F8510000209FE7000010B586B01E
:104310000446142101A8FCF722FE50492068884277
:104320007ED100BF002000904D48006840F48050CE
:104330004B4908600846006800F48050009000BFB8
:1043400000BF00BF0020009045481438006840F0CE
:1043500002004349143908600846006800F0020072
:10436000009000BF00BF00BF00200090084600681A
:1043700040F0010008600846006800F0010000906D
:1043800000BF00BF1820019002200290012003907E
:10439000032004900520059001A93248FEF714F887
:1043A00080200190022002900120039003200490BD
:1043B0000520059001A92C48FEF706F82B482C494A
:1043C00008604FF0C0604860002129488160C160EA
:1043D0004FF480610161002141618161C1614FF44D
:1043E0004031016204214162032181620021C162E6
:1043F0000163FDF705FF08B1FDF72FF800BF1C486A
:10440000E064846300BF194818301A4908604FF00F
:10441000C06048604021174881600021C16000E011
:104420001AE04FF480610161002141618161C16145
:104430004FF40031016204214162032181620021B5
:10444000C1620163FDF7DCFE08B1FDF706F800BFAD
:104450000848A064846300BF06B010BD003001406E
:104460004438024000040240000002404064024020
:1044700054070020B4070020704770472DE9FF5F04
:104480000446884691461D460E9E0120029000205B
:10449000019000BF94F85000012803D1022004B01D
:1044A000BDE8F09F012084F8500000BFFEF794F8AB
:1044B000074694F851B060680390AA46BBF1010F1B
:1044C0000BD00398B0F5827F04D1A06810B9BBF17E
:1044D000040F02D002200190DBE0B8F1000F03D0FE
:1044E000B9F1000F00D015B901200190D1E094F886
:1044F0005100042802D0052084F851000020606596
:10450000C4F83890E587A587C4F83080E586A5868D
:10451000206460642068006800F04000402805D0F6
:104520002068006840F0400021680860E068B0F54D
:10453000006F4AD1606810B1BAF1010F09D1206B48
:1045400000882168C860206B801C2063E08E401EBC
:10455000E08633E02068806800F00200022810D175
:10456000E08E70B1029801280BD1206B0088216881
:10457000C860206B801C2063E08E401EE086002017
:1045800002902068806800F0010068B1E08F58B1A7
:104590002068C068A16B0880A06B801CA063E08FBE
:1045A000401EE08701200290FEF716F8C01BB042C3
:1045B00004D3701C10B1032001906AE0E08E002843
:1045C000C8D1E08F0028C5D14AE0606810B1BAF1C7
:1045D000010F09D1206B007821680873206B401C03
:1045E0002063E08E401EE08634E02068806800F0A2
:1045F0000200022810D1E08E70B1029801280BD180
:10460000206B007821680873206B401C2063E08ECB
:10461000401EE086002002902068806800F00100C3
:1046200068B1E08F58B12068C068A16B0870A06BBA
:10463000401CA063E08F401EE08701200290FDF740
:10464000CBFFC01BB04201D3701C00B916B90320C8
:1046500001901EE0E08E0028C7D1E08F0028C4D171
:104660003A46314620460DF0EDF920B10120019087
:10467000202060650DE0A06850B900BF00200090C8
:104680002068C068009020688068009000BF00BF6C
:1046900000BF012084F8510000BF002084F85000C2
:1046A00000BF0198FBE600002DE9F04704460E46E6
:1046B00017461D464FF0000A00BF94F8500001282D
:1046C00002D10220BDE8F087012084F8500000BF2D
:1046D00094F85180D4F80490B8F1010F0AD0B9F5DC
:1046E000827F04D1A06810B9B8F1040F02D04FF056
:1046F000020A7DE00EB107B115B94FF0010A77E06B
:1047000094F85100042802D0052084F851000020BC
:1047100060652663A586E586A763A587E58720648F
:10472000606494F85100042806D13548E16C0864AF
:104730003448E16CC86305E03348E16C08643348F1
:10474000E16CC8633248E16CC8640020E16C086524
:10475000E38FD4F800C00CF10C01A26BE06CFDF704
:10476000C5FD48B1606D40F0100060654FF0010A72
:10477000012084F851003BE02068406840F00100CF
:10478000216848600020A16C0864A16CC863A16C1A
:10479000C864A16C0865E38ED4F800C00CF10C026B
:1047A000216BA06CFDF7A2FD48B1606D40F01000D8
:1047B00060654FF0010A012084F8510018E020687C
:1047C000006800F04000402805D02068006840F0F4
:1047D0004000216808602068406840F0200021689F
:1047E00048602068406840F002002168486000BFCF
:1047F00000BF002084F8500000BF504662E7000070
:10480000351A010825190108F11B0108B11A010820
:10481000FD18010810B504461C49206888420ED1D5
:104820001B4A11895068FDF7C7FE1948B0F80A21E4
:1048300000F18A01D0F810310A30984724E0154978
:10484000206888420ED1144A11895068FDF7B4FEE1
:104850001148B0F80A2100F18A01D0F810310A306D
:10486000984711E00D49206888420DD10C4A118902
:104870005068FDF7A1FE0A48B0F80A2100F18A014C
:10488000D0F810310A30984710BD000000300140C8
:10489000102B002000380040242C0020003C004059
:1048A000382D0020704770B504462546681EB0F1CB
:1048B000807F01D301200FE0681E4FF0E0214861A6
:1048C0000F214FF0FF300DF051FD00204FF0E0219F
:1048D000886107200861002070BD7047704710B5DF
:1048E0000346002200BF93F83C00012801D10220BA
:1048F00010BD012083F83C0000BF22F0FF00CC680F
:1049000040EA040222F440708C6840EA040222F477
:1049100080604C6840EA040222F400600C6840EABF
:10492000040222F480500C6940EA040222F4005090
:104930004C6940EA040222F48040CC6940EA040257
:104940001868426400BF002083F83C0000BF00BF2D
:10495000CEE7000030B502460B4600BF92F83C009F
:10496000012801D1022030BD012082F83C0000BFA7
:10497000022082F83D00106844681068816824F0C5
:1049800070041868044310684460184D1068A84209
:104990001BD01068B0F1804F17D0154D1068A84299
:1049A00013D0144D1068A8420FD0134D1068A842C0
:1049B0000BD0124D1068A84207D0114D1068A842C4
:1049C00003D0104D1068A84205D121F0800158682D
:1049D000014310688160012082F83D0000BF002083
:1049E00082F83C0000BF00BFBDE7000000000140AE
:1049F0000004004000080040000C0040000401409A
:104A0000004001400018004010B504460CB90120D8
:104A100010BD94F83D0028B9002084F83C002046E1
:104A200000F026F8022084F83D00211D206801F0E6
:104A300007FE012084F8460000BF84F83E000121F3
:104A40003F200155402001554120015500BF00BFC6
:104A5000012084F84200432001554420015545209F
:104A6000015500BF012084F83D000020D0E7000080
:104A700038B504464849206888420FD100BF00205D
:104A800000904648006840F001004449086008462C
:104A9000006800F00100009000BF7CE04049206801
:104AA000884211D100BF002000903C48001F0068E0
:104AB00040F002003949091F08600846006800F00C
:104AC0000200009000BF66E036492068884211D19C
:104AD00000BF002000903148001F006840F0040033
:104AE0002E49091F08600846006800F00400009085
:104AF00000BF50E02C49206888421AD100BF002036
:104B000000902648001F006840F008002349091F54
:104B100008600846006800F00800009000BF00BF71
:104B2000002201213220FEF79DF93220FEF78AF99A
:104B300031E01E49206888420FD100BF002000905C
:104B40001648006840F400301449086008460068C0
:104B500000F40030009000BF1DE015492068884235
:104B600019D100BF002000900C48001F006840F0E1
:104B700040000A49091F08600846006800F040002C
:104B8000009000BF00BF002201212B20FEF76AF930
:104B90002B20FEF757F938BD000001404438024091
:104BA0000004004000080040000C004000440140A8
:104BB00000180040014691F83D00012801D0012075
:104BC0007047022081F83D000868C06840F001008D
:104BD0000B68D8601A4B086898421BD00868B0F17F
:104BE000804F17D0174B0868984213D0164B0868AF
:104BF00098420FD0154B086898420BD0144B0868A8
:104C0000984207D0134B0868984203D0124B0868AB
:104C100098420CD10868806800F00702062A0CD080
:104C20000868006840F001000B68186005E008683B
:104C3000006840F001000B6818600020C0E7000029
:104C4000000001400004004000080040000C00404B
:104C50000004014000400140001800402DE9F041EF
:104C600004460D46002700BF94F83C00012802D1FD
:104C70000220BDE8F081012084F83C0000BF022042
:104C800084F83D002068866826F0770626F47F4683
:104C9000206886602868502833D00CDC202850D04B
:104CA00004DC00284BD0102851D149E0302849D0ED
:104CB00040284CD139E060282DD0702807D0B0F5BD
:104CC000805F03D0B0F5005F41D10DE041E0D5E950
:104CD00002136A68206801F030FD2068866846F09B
:104CE00077062068866034E0D5E902136A68206898
:104CF00001F023FD2068806840F4804021688860CE
:104D000027E0EA68696820680DF021F850212068E2
:104D10000DF014F81DE0EA68696820680DF02AF8C3
:104D2000602120680DF00AF813E0EA6869682068DD
:104D30000DF00DF8402120680DF000F809E000BFEB
:104D400000BF00BF296820680CF0F8FF01E00127D0
:104D500000BF00BF012084F83D0000BF002084F8A0
:104D60003C0000BF384684E7704710B50446206811
:104D70000069C0F34000D8B12068C068C0F34000AB
:104D8000B0B16FF00200216808610120207720682F
:104D9000806900F0030018B12046FFF7E5FF05E049
:104DA000204600F02BF9204600F0DFF900202077A4
:104DB00020680069C0F38000D8B12068C068C0F3E3
:104DC0008000B0B16FF004002168086102202077F4
:104DD0002068806900F4407018B12046FFF7C4FFD6
:104DE00005E0204600F00AF9204600F0BEF9002058
:104DF000207720680069C0F3C000D8B12068C0687F
:104E0000C0F3C000B0B16FF0080021680861042051
:104E100020772068C06900F0030018B12046FFF732
:104E2000A3FF05E0204600F0E9F8204600F09DF9D8
:104E30000020207720680069C0F30010D8B12068F6
:104E4000C068C0F30010B0B16FF0100021680861B5
:104E5000082020772068C06900F4407018B120460F
:104E6000FFF782FF05E0204600F0C8F8204600F07A
:104E70007CF9002020772068006900F0010058B11B
:104E80002068C06800F0010030B16FF001002168B7
:104E90000861204600F044FA20680069C0F3C010A1
:104EA00058B12068C068C0F3C01030B16FF0800006
:104EB000216808612046FFF710FD20680069C0F3F3
:104EC000801058B12068C068C0F3801030B16FF016
:104ED000400021680861204600F0CAFA2068006995
:104EE000C0F3401058B12068C068C0F3401030B122
:104EF0006FF02000216808612046FFF7EFFC10BD2D
:104F000010B586B00446142101A8FCF728F83449EE
:104F1000206888421ED100BF002000903148006800
:104F200040F010002F4908600846006800F01000AB
:104F3000009000BF00BF4FF400500190022002908B
:104F40000020039004900120059001A92648FDF758
:104F50003BFA43E02549206888421DD100BF00206C
:104F600000902048006840F002001E490860084692
:104F7000006800F00200009000BF00BF881501909B
:104F8000022002900020039004900220059001A9C5
:104F90001748FDF719FA21E01649206888421DD10B
:104FA00000BF002000900F48006840F020000D492D
:104FB00008600846006800F02000009000BF00BFB5
:104FC00040200190022002900120039002200490D2
:104FD0000320059001A90848FDF7F6F906B010BDB9
:104FE000000001403038024000100240000800403C
:104FF00000040240004401400014024070472DE9C3
:10500000F04104460D461646002700BF94F83C00C8
:10501000012802D10220BDE8F081012084F83C0083
:1050200000BF36B1042E1BD0082E31D00C2E5ED11D
:1050300045E0294620680CF0E3FD2068806940F0D7
:105040000800216888612068806920F004002168D8
:10505000886120688069296908432168886148E07F
:105060002946206801F074FB2068806940F40060E4
:10507000216888612068806920F4806021688861E7
:1050800020688069296940EA01202168886130E050
:10509000294620680CF0ECFD2068C06940F008004B
:1050A0002168C8612068C06920F004002168C861D7
:1050B0002068C069296908432168C86119E0294648
:1050C00020680CF011FE2068C06940F4006021687F
:1050D000C8612068C06920F480602168C8612068C8
:1050E000C069296940EA01202168C86101E00127FF
:1050F00000BF00BF00BF002084F83C0000BF38465E
:1051000089E710B504460CB9012010BD94F83D00A4
:1051100028B9002084F83C00204600F025F8022041
:1051200084F83D00211D206801F08AFA012084F8EE
:10513000460000BF84F83E0001213F200155402079
:1051400001554120015500BF00BF012084F84200F5
:1051500043200155442001554520015500BF012041
:1051600084F83D000020D0E77047704770B50446D2
:105170000D4615B994F83E000BE0042D02D13F20F6
:10518000005D06E0082D02D14020005D01E04120D5
:10519000005D012801D0012070BD1DB9022084F8F6
:1051A0003E000EE0042D03D102213F20015508E00E
:1051B000082D03D102214020015502E002214120A7
:1051C000015501222946206801F0A6FA23492068EA
:1051D000884203D022492068884201D1012000E0A2
:1051E000002028B12068406C40F4004021684864E9
:1051F0001A49206888421BD02068B0F1804F17D030
:1052000018492068884213D01749206888420FD077
:105210001649206888420BD011492068884207D07F
:1052200013492068884203D01249206888420CD173
:105230002068806800F00706062E0CD02068006801
:1052400040F001002168086005E02068006840F037
:1052500001002168086000209EE700000000014076
:10526000000401400004004000080040000C004021
:10527000004001400018004030B504460D460022B1
:105280002946206801F048FA23492068884203D063
:1052900022492068884201D1012000E0002090B11D
:1052A00000BF2068006A41F21111084050B920681F
:1052B000006A8910084028B92068406C20F400403A
:1052C0002168486400BF00BF2068006A41F21111E4
:1052D000084050B92068006A8910084028B9206841
:1052E000006820F001002168086000BF1DB901209E
:1052F00084F83E000EE0042D03D101213F2001552A
:1053000008E0082D03D101214020015502E00121D0
:1053100041200155002030BD000001400004014043
:1053200010B5044637492068884203D13649486899
:10533000804766E02068B0F1804F03D13349486868
:1053400080475EE032492068884203D1314948688D
:10535000804756E030492068884203D12F49486889
:1053600080474EE02E492068884203D12D49486885
:10537000804746E02C492068884203D12B49486881
:1053800080473EE02A492068884203D1294948687D
:10539000804736E028492068884203D12749486879
:1053A00080472EE026492068884203D12549486875
:1053B000804726E024492068884203D12349486871
:1053C00080471EE022492068884203D1214948686D
:1053D000804716E020492068884203D11F49486869
:1053E00080470EE01E492068884203D11D49486865
:1053F000804706E01C492068884202D11B49486862
:10540000804710BD00000140080500201005002065
:10541000000400401805002000080040200500207E
:10542000000C00402805002000100040300500203E
:105430000014004038050020000401404005002011
:105440000040014048050020004401405005002074
:105450000048014058050020001800406005002069
:10546000001C00406805002000200040700500205E
:105470007047F8B504460E46174694F83E002028BB
:1054800036D106B10FB90120F8BD00BF94F83C0039
:10549000012801D10220F7E7012084F83C0000BF79
:1054A00020633A463146204601F090F90546EDB9B1
:1054B000206B012819D100BF0020009020680068EF
:1054C000009020684068009000BF00BF00BF00BF90
:1054D00021680C3151E8001F41F0100021680C31A7
:1054E00041E80002002AF3D100E001252846CBE77D
:1054F0000220C9E770B504460D4639492068884244
:105500000ED138482946D0F80821843090473548D4
:10551000B0F8042100F184012046FFF7AAFF5DE006
:105520003149206888420ED130482946D0F80821F8
:10553000843090472D48B0F8042100F184012046C2
:10554000FFF797FF4AE02A49206888420ED1294890
:105550002946D0F80821843090472648B0F8042125
:1055600000F184012046FFF784FF37E022492068DC
:1055700088420ED121482946D0F80821843090472E
:105580001E48B0F8042100F184012046FFF771FFA6
:1055900024E01B49206888420ED11A482946D0F8D9
:1055A0000821843090471748B0F8042100F18401A5
:1055B0002046FFF75EFF11E01349206888420DD1B5
:1055C00012482946D0F80821843090470F48B0F897
:1055D000042100F184012046FFF74BFF70BD00005D
:1055E0000010014088310020004400409432002027
:1055F00000480040A0330020004C0040AC340020A4
:1056000000500040B835002000140140C43600208E
:1056100070B50446002520684069C0F3C01594F8B1
:105620003D00212817D1B5B100BF00BF216814315A
:1056300051E8001F21F080002168143141E8000288
:10564000002AF3D100BF606B10B1606BFCF74DFC1A
:1056500020460CF0DAFD20684069C0F3801594F80C
:105660003E00222817D1B5B100BF00BF2168143118
:1056700051E8001F21F040002168143141E8000288
:10568000002AF3D100BFA06B10B1A06BFCF72DFC7A
:1056900020460CF084FD002070BD70472DE9F84FC6
:1056A0000446206805682068C668206847694FF08E
:1056B0000009CA4605F00F09B9F1000F0AD105F03B
:1056C000200038B106F0200020B120460CF0A4FCE8
:1056D000BDE8F88FB9F1000F7CD007F0010018B9D0
:1056E00006F49070002875D005F0010030B106F482
:1056F000807018B1206C40F00100206405F00400B7
:1057000030B107F0010018B1206C40F002002064B5
:1057100005F0020030B107F0010018B1206C40F034
:105720000400206405F0080048B106F0200010B91C
:1057300007F0010018B1206C40F008002064206CD4
:10574000002846D005F0200028B106F0200010B156
:1057500020460CF061FC20684069C0F3801A206C80
:1057600000F0080010B9BAF1000F2DD020460CF05F
:1057700016FD2068406900F04000402820D100BF9D
:1057800000BF2168143151E8001F21F0400021685A
:10579000143141E80002002AF3D100BFA06B50B1E0
:1057A0007548A16B0865A06BFCF7F5FB88B1A06B91
:1057B000016D88470DE02046FFF76FFF09E009E023
:1057C0002046FFF76AFF04E02046FFF766FF00204F
:1057D00020647DE7206B012876D105F010000028B9
:1057E00072D006F010000028FAD000BF0020009010
:1057F00020680068009020684068009000BF00BFEB
:105800002068406900F0400040285ED1A06B00682D
:1058100040681FFA80F8B8F1000F54D0A08D4045C1
:1058200051DDA4F82E80A06BC069B0F5807F43D015
:1058300000BF00BF21680C3151E8001F21F48070C7
:1058400021680C3141E80002002AF3D100BF00BFFB
:1058500000BF2168143151E8001F21F001002168C8
:10586000143141E80002002AF3D100BF00BF00BF9D
:105870002168143151E8001F21F0400021681431E3
:1058800041E80002002AF3D100BF202084F83E0046
:105890000020206300BF00BF21680C3151E8001FC9
:1058A00021F0100021680C3141E80002002AF3D1F8
:1058B00000BFA06BFCF719FBA08DE28D801A81B2AE
:1058C0002046FFF717FE03E740E0A08DE18D401A68
:1058D0001FFA80F8E08DC0B3B8F1000F35D000BFDB
:1058E00000BF21680C3151E8001F21F4907021683D
:1058F0000C3141E80002002AF3D100BF00BF00BF15
:105900002168143151E8001F21F001002168143191
:1059100041E80002002AF3D100BF202084F83E00B5
:105920000020206300BF00BF21680C3151E8001F38
:1059300021F0100021680C3141E80002002AF3D167
:1059400000BF41462046FFF7D5FDC1E605F08000C7
:1059500030B106F0800018B120460CF0D9FBB7E654
:1059600005F0400030B106F0400018B120460CF0C0
:10597000B7FCADE600BFABE60123010810B5044655
:105980000CB9012010BDA06900B100E000BF94F87F
:105990003D0028B9002084F83C00204600F028F89B
:1059A000242084F83D002068C06820F4005021685D
:1059B000C86020460CF01AFA2068006920F4904074
:1059C000216808612068406920F02A002168486148
:1059D0002068C06840F400502168C860002020643E
:1059E000202084F83D0084F83E000020CAE7000033
:1059F00010B586B00446142101A8FBF7B0FAC749D8
:105A0000206888427ED100BF00200090C448006812
:105A100040F01000C24908600846006800F010001D
:105A2000009000BF00BF00BF00200090BC481438A9
:105A3000006840F00200BA4914390860084600685E
:105A400000F00200009000BF00BF00BF00200090E7
:105A50000846006840F0010008600846006800F051
:105A60000100009000BF00BF802001900220029042
:105A700000200390032004900720059001A9A94865
:105A8000FCF7A2FC4FF4007001900220029000206D
:105A90000390032004900720059001A9A248FCF779
:105AA00093FCA248A24908604FF0006048600021C2
:105AB0009F488160C1604FF48061016100214161B4
:105AC0008161C1614FF440310162042141620321CF
:105AD00081620021C1620163FCF792FB08B1FBF710
